{
  "contractName": "BookLedger",
  "abi": [
    {
      "constant": true,
      "inputs": [
        {
          "name": "tokenId",
          "type": "uint256"
        }
      ],
      "name": "getApproved",
      "outputs": [
        {
          "name": "",
          "type": "address"
        }
      ],
      "payable": false,
      "stateMutability": "view",
      "type": "function"
    },
    {
      "constant": false,
      "inputs": [
        {
          "name": "to",
          "type": "address"
        },
        {
          "name": "tokenId",
          "type": "uint256"
        }
      ],
      "name": "approve",
      "outputs": [],
      "payable": false,
      "stateMutability": "nonpayable",
      "type": "function"
    },
    {
      "constant": false,
      "inputs": [
        {
          "name": "from",
          "type": "address"
        },
        {
          "name": "to",
          "type": "address"
        },
        {
          "name": "tokenId",
          "type": "uint256"
        }
      ],
      "name": "transferFrom",
      "outputs": [],
      "payable": false,
      "stateMutability": "nonpayable",
      "type": "function"
    },
    {
      "constant": true,
      "inputs": [
        {
          "name": "",
          "type": "address"
        },
        {
          "name": "",
          "type": "address"
        },
        {
          "name": "",
          "type": "uint256"
        }
      ],
      "name": "_bookEscrow",
      "outputs": [
        {
          "name": "",
          "type": "uint256"
        }
      ],
      "payable": false,
      "stateMutability": "view",
      "type": "function"
    },
    {
      "constant": true,
      "inputs": [],
      "name": "_maxEscrow",
      "outputs": [
        {
          "name": "",
          "type": "uint256"
        }
      ],
      "payable": false,
      "stateMutability": "view",
      "type": "function"
    },
    {
      "constant": true,
      "inputs": [],
      "name": "_minter",
      "outputs": [
        {
          "name": "",
          "type": "address"
        }
      ],
      "payable": false,
      "stateMutability": "view",
      "type": "function"
    },
    {
      "constant": true,
      "inputs": [
        {
          "name": "",
          "type": "uint256"
        }
      ],
      "name": "_entity",
      "outputs": [
        {
          "name": "",
          "type": "address"
        }
      ],
      "payable": false,
      "stateMutability": "view",
      "type": "function"
    },
    {
      "constant": true,
      "inputs": [
        {
          "name": "tokenId",
          "type": "uint256"
        }
      ],
      "name": "ownerOf",
      "outputs": [
        {
          "name": "",
          "type": "address"
        }
      ],
      "payable": false,
      "stateMutability": "view",
      "type": "function"
    },
    {
      "constant": true,
      "inputs": [
        {
          "name": "owner",
          "type": "address"
        }
      ],
      "name": "balanceOf",
      "outputs": [
        {
          "name": "",
          "type": "uint256"
        }
      ],
      "payable": false,
      "stateMutability": "view",
      "type": "function"
    },
    {
      "constant": true,
      "inputs": [],
      "name": "contractName",
      "outputs": [
        {
          "name": "",
          "type": "string"
        }
      ],
      "payable": false,
      "stateMutability": "view",
      "type": "function"
    },
    {
      "constant": true,
      "inputs": [],
      "name": "_minEscrow",
      "outputs": [
        {
          "name": "",
          "type": "uint256"
        }
      ],
      "payable": false,
      "stateMutability": "view",
      "type": "function"
    },
    {
      "constant": false,
      "inputs": [
        {
          "name": "to",
          "type": "address"
        },
        {
          "name": "approved",
          "type": "bool"
        }
      ],
      "name": "setApprovalForAll",
      "outputs": [],
      "payable": false,
      "stateMutability": "nonpayable",
      "type": "function"
    },
    {
      "constant": true,
      "inputs": [],
      "name": "_maxBookCount",
      "outputs": [
        {
          "name": "",
          "type": "uint256"
        }
      ],
      "payable": false,
      "stateMutability": "view",
      "type": "function"
    },
    {
      "constant": true,
      "inputs": [
        {
          "name": "owner",
          "type": "address"
        },
        {
          "name": "operator",
          "type": "address"
        }
      ],
      "name": "isApprovedForAll",
      "outputs": [
        {
          "name": "",
          "type": "bool"
        }
      ],
      "payable": false,
      "stateMutability": "view",
      "type": "function"
    },
    {
      "inputs": [
        {
          "name": "minter",
          "type": "address"
        },
        {
          "name": "minEscrow",
          "type": "uint256"
        },
        {
          "name": "maxEscrow",
          "type": "uint256"
        }
      ],
      "payable": false,
      "stateMutability": "nonpayable",
      "type": "constructor"
    },
    {
      "anonymous": false,
      "inputs": [],
      "name": "bookRequested",
      "type": "event"
    },
    {
      "anonymous": false,
      "inputs": [
        {
          "indexed": false,
          "name": "msgSender",
          "type": "address"
        },
        {
          "indexed": false,
          "name": "owner",
          "type": "address"
        }
      ],
      "name": "people",
      "type": "event"
    },
    {
      "anonymous": false,
      "inputs": [
        {
          "indexed": false,
          "name": "publisher",
          "type": "string"
        },
        {
          "indexed": false,
          "name": "author",
          "type": "string"
        },
        {
          "indexed": false,
          "name": "name",
          "type": "string"
        }
      ],
      "name": "bookAdded",
      "type": "event"
    },
    {
      "anonymous": false,
      "inputs": [
        {
          "indexed": false,
          "name": "publisher",
          "type": "string"
        },
        {
          "indexed": false,
          "name": "author",
          "type": "string"
        },
        {
          "indexed": false,
          "name": "name",
          "type": "string"
        }
      ],
      "name": "bookRemoved",
      "type": "event"
    },
    {
      "anonymous": false,
      "inputs": [
        {
          "indexed": false,
          "name": "newOwner",
          "type": "address"
        },
        {
          "indexed": false,
          "name": "escrowAmount",
          "type": "uint256"
        }
      ],
      "name": "escrowCommitted",
      "type": "event"
    },
    {
      "anonymous": false,
      "inputs": [
        {
          "indexed": false,
          "name": "currentOwner",
          "type": "address"
        },
        {
          "indexed": false,
          "name": "tempOwner",
          "type": "address"
        },
        {
          "indexed": false,
          "name": "bookID",
          "type": "uint256"
        },
        {
          "indexed": false,
          "name": "InTransmission",
          "type": "bool"
        }
      ],
      "name": "bookInTransmission",
      "type": "event"
    },
    {
      "anonymous": false,
      "inputs": [
        {
          "indexed": false,
          "name": "transmissionComplete",
          "type": "bool"
        },
        {
          "indexed": false,
          "name": "bookCondition",
          "type": "string"
        }
      ],
      "name": "bookReceived",
      "type": "event"
    },
    {
      "anonymous": false,
      "inputs": [
        {
          "indexed": false,
          "name": "bookLost",
          "type": "bool"
        },
        {
          "indexed": false,
          "name": "bookID",
          "type": "uint256"
        }
      ],
      "name": "bookIsLost",
      "type": "event"
    },
    {
      "anonymous": false,
      "inputs": [
        {
          "indexed": true,
          "name": "from",
          "type": "address"
        },
        {
          "indexed": true,
          "name": "to",
          "type": "address"
        },
        {
          "indexed": true,
          "name": "tokenId",
          "type": "uint256"
        }
      ],
      "name": "Transfer",
      "type": "event"
    },
    {
      "anonymous": false,
      "inputs": [
        {
          "indexed": true,
          "name": "owner",
          "type": "address"
        },
        {
          "indexed": true,
          "name": "approved",
          "type": "address"
        },
        {
          "indexed": true,
          "name": "tokenId",
          "type": "uint256"
        }
      ],
      "name": "Approval",
      "type": "event"
    },
    {
      "anonymous": false,
      "inputs": [
        {
          "indexed": true,
          "name": "owner",
          "type": "address"
        },
        {
          "indexed": true,
          "name": "operator",
          "type": "address"
        },
        {
          "indexed": false,
          "name": "approved",
          "type": "bool"
        }
      ],
      "name": "ApprovalForAll",
      "type": "event"
    },
    {
      "constant": false,
      "inputs": [
        {
          "name": "owner",
          "type": "address"
        },
        {
          "name": "bookID",
          "type": "uint256"
        },
        {
          "name": "genre",
          "type": "uint256"
        },
        {
          "name": "country",
          "type": "string"
        },
        {
          "name": "publisher",
          "type": "string"
        },
        {
          "name": "author",
          "type": "string"
        },
        {
          "name": "name",
          "type": "string"
        }
      ],
      "name": "newBook",
      "outputs": [
        {
          "name": "",
          "type": "uint256"
        }
      ],
      "payable": false,
      "stateMutability": "nonpayable",
      "type": "function"
    },
    {
      "constant": true,
      "inputs": [
        {
          "name": "owner",
          "type": "address"
        },
        {
          "name": "bookID",
          "type": "uint256"
        }
      ],
      "name": "originDateOfBook",
      "outputs": [
        {
          "name": "",
          "type": "uint256"
        }
      ],
      "payable": false,
      "stateMutability": "view",
      "type": "function"
    },
    {
      "constant": true,
      "inputs": [
        {
          "name": "owner",
          "type": "address"
        }
      ],
      "name": "numberOfBookInLibrary",
      "outputs": [
        {
          "name": "",
          "type": "uint256"
        }
      ],
      "payable": false,
      "stateMutability": "view",
      "type": "function"
    },
    {
      "constant": true,
      "inputs": [
        {
          "name": "owner",
          "type": "address"
        }
      ],
      "name": "numberOfAUserHolds",
      "outputs": [
        {
          "name": "",
          "type": "uint256"
        }
      ],
      "payable": false,
      "stateMutability": "view",
      "type": "function"
    },
    {
      "constant": true,
      "inputs": [
        {
          "name": "owner",
          "type": "address"
        },
        {
          "name": "bookID",
          "type": "uint256"
        }
      ],
      "name": "doesUserHaveBook",
      "outputs": [
        {
          "name": "",
          "type": "bool"
        }
      ],
      "payable": false,
      "stateMutability": "view",
      "type": "function"
    },
    {
      "constant": false,
      "inputs": [
        {
          "name": "owner",
          "type": "address"
        },
        {
          "name": "bookID",
          "type": "uint256"
        }
      ],
      "name": "addBookToUser",
      "outputs": [],
      "payable": false,
      "stateMutability": "nonpayable",
      "type": "function"
    },
    {
      "constant": false,
      "inputs": [
        {
          "name": "owner",
          "type": "address"
        },
        {
          "name": "bookID",
          "type": "uint256"
        }
      ],
      "name": "removeBookFromUser",
      "outputs": [],
      "payable": false,
      "stateMutability": "nonpayable",
      "type": "function"
    },
    {
      "constant": true,
      "inputs": [
        {
          "name": "owner",
          "type": "address"
        },
        {
          "name": "bookID",
          "type": "uint256"
        }
      ],
      "name": "isBookAvailable",
      "outputs": [
        {
          "name": "",
          "type": "bool"
        }
      ],
      "payable": false,
      "stateMutability": "view",
      "type": "function"
    },
    {
      "constant": true,
      "inputs": [
        {
          "name": "sender",
          "type": "address"
        },
        {
          "name": "receiver",
          "type": "address"
        },
        {
          "name": "bookID",
          "type": "uint256"
        }
      ],
      "name": "isBookCommitted",
      "outputs": [
        {
          "name": "",
          "type": "bool"
        }
      ],
      "payable": false,
      "stateMutability": "view",
      "type": "function"
    },
    {
      "constant": true,
      "inputs": [
        {
          "name": "owner",
          "type": "address"
        },
        {
          "name": "requester",
          "type": "address"
        },
        {
          "name": "bookID",
          "type": "uint256"
        }
      ],
      "name": "transmissionStatus",
      "outputs": [
        {
          "name": "",
          "type": "bool"
        }
      ],
      "payable": false,
      "stateMutability": "view",
      "type": "function"
    },
    {
      "constant": true,
      "inputs": [
        {
          "name": "requester",
          "type": "address"
        }
      ],
      "name": "accountEscrow",
      "outputs": [
        {
          "name": "",
          "type": "uint256"
        }
      ],
      "payable": false,
      "stateMutability": "view",
      "type": "function"
    },
    {
      "constant": true,
      "inputs": [
        {
          "name": "owner",
          "type": "address"
        },
        {
          "name": "requester",
          "type": "address"
        },
        {
          "name": "bookID",
          "type": "uint256"
        }
      ],
      "name": "bookEscrow",
      "outputs": [
        {
          "name": "",
          "type": "uint256"
        }
      ],
      "payable": false,
      "stateMutability": "view",
      "type": "function"
    },
    {
      "constant": false,
      "inputs": [
        {
          "name": "owner",
          "type": "address"
        },
        {
          "name": "bookID",
          "type": "uint256"
        }
      ],
      "name": "requestBook",
      "outputs": [],
      "payable": false,
      "stateMutability": "nonpayable",
      "type": "function"
    },
    {
      "constant": false,
      "inputs": [
        {
          "name": "sender",
          "type": "address"
        },
        {
          "name": "receiver",
          "type": "address"
        },
        {
          "name": "bookID",
          "type": "uint256"
        },
        {
          "name": "escrow",
          "type": "uint256"
        }
      ],
      "name": "commitBook",
      "outputs": [],
      "payable": false,
      "stateMutability": "nonpayable",
      "type": "function"
    },
    {
      "constant": false,
      "inputs": [
        {
          "name": "sender",
          "type": "address"
        },
        {
          "name": "receiver",
          "type": "address"
        },
        {
          "name": "bookID",
          "type": "uint256"
        },
        {
          "name": "escrow",
          "type": "uint256"
        }
      ],
      "name": "commitEscrow",
      "outputs": [],
      "payable": false,
      "stateMutability": "nonpayable",
      "type": "function"
    },
    {
      "constant": false,
      "inputs": [
        {
          "name": "currentOwner",
          "type": "address"
        },
        {
          "name": "tempOwner",
          "type": "address"
        },
        {
          "name": "bookID",
          "type": "uint256"
        }
      ],
      "name": "checkoutBook",
      "outputs": [],
      "payable": false,
      "stateMutability": "nonpayable",
      "type": "function"
    },
    {
      "constant": false,
      "inputs": [
        {
          "name": "sender",
          "type": "address"
        },
        {
          "name": "receiver",
          "type": "address"
        },
        {
          "name": "bookID",
          "type": "uint256"
        },
        {
          "name": "condition",
          "type": "string"
        }
      ],
      "name": "acceptBook",
      "outputs": [],
      "payable": false,
      "stateMutability": "nonpayable",
      "type": "function"
    },
    {
      "constant": false,
      "inputs": [
        {
          "name": "receiver",
          "type": "address"
        },
        {
          "name": "sender",
          "type": "address"
        },
        {
          "name": "bookID",
          "type": "uint256"
        },
        {
          "name": "condition",
          "type": "string"
        }
      ],
      "name": "returnBook",
      "outputs": [],
      "payable": false,
      "stateMutability": "nonpayable",
      "type": "function"
    },
    {
      "constant": false,
      "inputs": [
        {
          "name": "originalOwner",
          "type": "address"
        },
        {
          "name": "tempOwner",
          "type": "address"
        },
        {
          "name": "bookID",
          "type": "uint256"
        },
        {
          "name": "condition",
          "type": "string"
        }
      ],
      "name": "archiveBook",
      "outputs": [],
      "payable": false,
      "stateMutability": "nonpayable",
      "type": "function"
    },
    {
      "constant": false,
      "inputs": [
        {
          "name": "owner1",
          "type": "address"
        },
        {
          "name": "bookID1",
          "type": "uint256"
        },
        {
          "name": "owner2",
          "type": "address"
        },
        {
          "name": "bookID2",
          "type": "uint256"
        }
      ],
      "name": "tradeBook",
      "outputs": [],
      "payable": false,
      "stateMutability": "nonpayable",
      "type": "function"
    },
    {
      "constant": false,
      "inputs": [
        {
          "name": "owner",
          "type": "address"
        },
        {
          "name": "bookID",
          "type": "uint256"
        }
      ],
      "name": "lostBook",
      "outputs": [],
      "payable": false,
      "stateMutability": "nonpayable",
      "type": "function"
    },
    {
      "constant": false,
      "inputs": [
        {
          "name": "owner",
          "type": "address"
        },
        {
          "name": "bookID",
          "type": "uint256"
        },
        {
          "name": "burn",
          "type": "bool"
        }
      ],
      "name": "removeBook",
      "outputs": [
        {
          "name": "",
          "type": "bool"
        }
      ],
      "payable": false,
      "stateMutability": "nonpayable",
      "type": "function"
    }
  ],
  "bytecode": "0x608060405234801561001057600080fd5b50604051606080620055ff83398101806040528101908080519060200190929190805190602001909291908051906020019092919050505082600e60006101000a81548173ffffffffffffffffffffffffffffffffffffffff021916908373ffffffffffffffffffffffffffffffffffffffff16021790555081600f819055508160108190555050505061555580620000aa6000396000f3006080604052600436106101c2576000357c0100000000000000000000000000000000000000000000000000000000900463ffffffff168063081812fc146101c7578063095ea7b3146102345780631fce37401461028157806321e8b84b1461030657806323b872dd1461037357806326fa524f146103e0578063285750ca146104375780632ac08a08146104b85780632cfc89ec1461056b5780633fd4c90e146105e2578063455338071461060d5780634b4f733514610684578063578ec33f1461070957806358960d5b1461076057806360310fa0146108135780636352211e1461088057806363d8b0ed146108ed57806370a082311461093a57806375d0c0dc146109915780637e6165b814610a215780638551576d14610a4c57806385630a5d14610acd5780638a2c6d6214610b8057806393cc65f414610bd757806394ca55f614610d5a5780639c5f754f14610da7578063a22cb46514610df4578063a72f74dc14610e43578063ad3bd28314610e6e578063c896406514610ecf578063d1cf4a2f14610f26578063d6bff86514610f8b578063d9ae0eb614610ffc578063de16f4eb14611049578063e985e9c5146110c0578063efe9329c1461113b575b600080fd5b3480156101d357600080fd5b506101f2600480360381019080803590602001909291905050506111a0565b604051808273ffffffffffffffffffffffffffffffffffffffff1673ffffffffffffffffffffffffffffffffffffffff16815260200191505060405180910390f35b34801561024057600080fd5b5061027f600480360381019080803573ffffffffffffffffffffffffffffffffffffffff169060200190929190803590602001909291905050506111dd565b005b34801561028d57600080fd5b506102ec600480360381019080803573ffffffffffffffffffffffffffffffffffffffff169060200190929190803573ffffffffffffffffffffffffffffffffffffffff16906020019092919080359060200190929190505050611322565b604051808215151515815260200191505060405180910390f35b34801561031257600080fd5b50610371600480360381019080803573ffffffffffffffffffffffffffffffffffffffff169060200190929190803573ffffffffffffffffffffffffffffffffffffffff1690602001909291908035906020019092919050505061146d565b005b34801561037f57600080fd5b506103de600480360381019080803573ffffffffffffffffffffffffffffffffffffffff169060200190929190803573ffffffffffffffffffffffffffffffffffffffff16906020019092919080359060200190929190505050611979565b005b3480156103ec57600080fd5b50610421600480360381019080803573ffffffffffffffffffffffffffffffffffffffff169060200190929190505050611c77565b6040518082815260200191505060405180910390f35b34801561044357600080fd5b506104a2600480360381019080803573ffffffffffffffffffffffffffffffffffffffff169060200190929190803573ffffffffffffffffffffffffffffffffffffffff16906020019092919080359060200190929190505050611d1d565b6040518082815260200191505060405180910390f35b3480156104c457600080fd5b50610569600480360381019080803573ffffffffffffffffffffffffffffffffffffffff169060200190929190803573ffffffffffffffffffffffffffffffffffffffff16906020019092919080359060200190929190803590602001908201803590602001908080601f0160208091040260200160405190810160405280939291908181526020018383808284378201915050505050509192919290505050611d4f565b005b34801561057757600080fd5b506105e0600480360381019080803573ffffffffffffffffffffffffffffffffffffffff169060200190929190803573ffffffffffffffffffffffffffffffffffffffff1690602001909291908035906020019092919080359060200190929190505050612072565b005b3480156105ee57600080fd5b506105f7612384565b6040518082815260200191505060405180910390f35b34801561061957600080fd5b50610682600480360381019080803573ffffffffffffffffffffffffffffffffffffffff169060200190929190803573ffffffffffffffffffffffffffffffffffffffff169060200190929190803590602001909291908035906020019092919050505061238a565b005b34801561069057600080fd5b506106ef600480360381019080803573ffffffffffffffffffffffffffffffffffffffff169060200190929190803573ffffffffffffffffffffffffffffffffffffffff16906020019092919080359060200190929190505050612641565b604051808215151515815260200191505060405180910390f35b34801561071557600080fd5b5061071e6126e7565b604051808273ffffffffffffffffffffffffffffffffffffffff1673ffffffffffffffffffffffffffffffffffffffff16815260200191505060405180910390f35b34801561076c57600080fd5b50610811600480360381019080803573ffffffffffffffffffffffffffffffffffffffff169060200190929190803573ffffffffffffffffffffffffffffffffffffffff16906020019092919080359060200190929190803590602001908201803590602001908080601f016020809104026020016040519081016040528093929190818152602001838380828437820191505050505050919291929050505061270d565b005b34801561081f57600080fd5b5061083e60048036038101908080359060200190929190505050612afe565b604051808273ffffffffffffffffffffffffffffffffffffffff1673ffffffffffffffffffffffffffffffffffffffff16815260200191505060405180910390f35b34801561088c57600080fd5b506108ab60048036038101908080359060200190929190505050612b3c565b604051808273ffffffffffffffffffffffffffffffffffffffff1673ffffffffffffffffffffffffffffffffffffffff16815260200191505060405180910390f35b3480156108f957600080fd5b50610938600480360381019080803573ffffffffffffffffffffffffffffffffffffffff16906020019092919080359060200190929190505050612b78565b005b34801561094657600080fd5b5061097b600480360381019080803573ffffffffffffffffffffffffffffffffffffffff169060200190929190505050612da2565b6040518082815260200191505060405180910390f35b34801561099d57600080fd5b506109a6612e26565b6040518080602001828103825283818151815260200191508051906020019080838360005b838110156109e65780820151818401526020810190506109cb565b50505050905090810190601f168015610a135780820380516001836020036101000a031916815260200191505b509250505060405180910390f35b348015610a2d57600080fd5b50610a36612e5f565b6040518082815260200191505060405180910390f35b348015610a5857600080fd5b50610ab7600480360381019080803573ffffffffffffffffffffffffffffffffffffffff169060200190929190803573ffffffffffffffffffffffffffffffffffffffff16906020019092919080359060200190929190505050612e65565b6040518082815260200191505060405180910390f35b348015610ad957600080fd5b50610b7e600480360381019080803573ffffffffffffffffffffffffffffffffffffffff169060200190929190803573ffffffffffffffffffffffffffffffffffffffff16906020019092919080359060200190929190803590602001908201803590602001908080601f0160208091040260200160405190810160405280939291908181526020018383808284378201915050505050509192919290505050612efe565b005b348015610b8c57600080fd5b50610bc1600480360381019080803573ffffffffffffffffffffffffffffffffffffffff1690602001909291905050506131e0565b6040518082815260200191505060405180910390f35b348015610be357600080fd5b50610d44600480360381019080803573ffffffffffffffffffffffffffffffffffffffff1690602001909291908035906020019092919080359060200190929190803590602001908201803590602001908080601f0160208091040260200160405190810160405280939291908181526020018383808284378201915050505050509192919290803590602001908201803590602001908080601f0160208091040260200160405190810160405280939291908181526020018383808284378201915050505050509192919290803590602001908201803590602001908080601f0160208091040260200160405190810160405280939291908181526020018383808284378201915050505050509192919290803590602001908201803590602001908080601f0160208091040260200160405190810160405280939291908181526020018383808284378201915050505050509192919290505050613229565b6040518082815260200191505060405180910390f35b348015610d6657600080fd5b50610da5600480360381019080803573ffffffffffffffffffffffffffffffffffffffff169060200190929190803590602001909291905050506138d5565b005b348015610db357600080fd5b50610df2600480360381019080803573ffffffffffffffffffffffffffffffffffffffff169060200190929190803590602001909291905050506139ee565b005b348015610e0057600080fd5b50610e41600480360381019080803573ffffffffffffffffffffffffffffffffffffffff169060200190929190803515159060200190929190505050613b14565b005b348015610e4f57600080fd5b50610e58613c50565b6040518082815260200191505060405180910390f35b348015610e7a57600080fd5b50610eb9600480360381019080803573ffffffffffffffffffffffffffffffffffffffff16906020019092919080359060200190929190505050613c56565b6040518082815260200191505060405180910390f35b348015610edb57600080fd5b50610f10600480360381019080803573ffffffffffffffffffffffffffffffffffffffff169060200190929190505050613d59565b6040518082815260200191505060405180910390f35b348015610f3257600080fd5b50610f71600480360381019080803573ffffffffffffffffffffffffffffffffffffffff16906020019092919080359060200190929190505050613e01565b604051808215151515815260200191505060405180910390f35b348015610f9757600080fd5b50610fe2600480360381019080803573ffffffffffffffffffffffffffffffffffffffff16906020019092919080359060200190929190803515159060200190929190505050613ec6565b604051808215151515815260200191505060405180910390f35b34801561100857600080fd5b50611047600480360381019080803573ffffffffffffffffffffffffffffffffffffffff16906020019092919080359060200190929190505050614398565b005b34801561105557600080fd5b506110be600480360381019080803573ffffffffffffffffffffffffffffffffffffffff16906020019092919080359060200190929190803573ffffffffffffffffffffffffffffffffffffffff16906020019092919080359060200190929190505050614557565b005b3480156110cc57600080fd5b50611121600480360381019080803573ffffffffffffffffffffffffffffffffffffffff169060200190929190803573ffffffffffffffffffffffffffffffffffffffff169060200190929190505050614aa7565b604051808215151515815260200191505060405180910390f35b34801561114757600080fd5b50611186600480360381019080803573ffffffffffffffffffffffffffffffffffffffff16906020019092919080359060200190929190505050614b3b565b604051808215151515815260200191505060405180910390f35b60006001600083815260200190815260200160002060009054906101000a900473ffffffffffffffffffffffffffffffffffffffff169050919050565b60006111e882612b3c565b90508073ffffffffffffffffffffffffffffffffffffffff168373ffffffffffffffffffffffffffffffffffffffff161415151561122557600080fd5b8073ffffffffffffffffffffffffffffffffffffffff163373ffffffffffffffffffffffffffffffffffffffff16148061126557506112648133614aa7565b5b151561127057600080fd5b826001600084815260200190815260200160002060006101000a81548173ffffffffffffffffffffffffffffffffffffffff021916908373ffffffffffffffffffffffffffffffffffffffff160217905550818373ffffffffffffffffffffffffffffffffffffffff168273ffffffffffffffffffffffffffffffffffffffff167f8c5be1e5ebec7d5bd14f71427d1e84f3dd0314c0f7b2291e5b200ac8c7c3b92560405160405180910390a4505050565b60008161132e81614c4b565b15156113c8576040517f08c379a000000000000000000000000000000000000000000000000000000000815260040180806020018281038252603e8152602001807f45524337323120746f6b656e2065786973747320666f7220626f6f6b2077697481526020017f682073706563696669656420494420646f6573206e6f742065786973742e000081525060400191505060405180910390fd5b600a60008673ffffffffffffffffffffffffffffffffffffffff1673ffffffffffffffffffffffffffffffffffffffff16815260200190815260200160002060008573ffffffffffffffffffffffffffffffffffffffff1673ffffffffffffffffffffffffffffffffffffffff168152602001908152602001600020600084815260200190815260200160002060009054906101000a900460ff169150509392505050565b8061147781614c4b565b1515611511576040517f08c379a000000000000000000000000000000000000000000000000000000000815260040180806020018281038252603e8152602001807f45524337323120746f6b656e2065786973747320666f7220626f6f6b2077697481526020017f682073706563696669656420494420646f6573206e6f742065786973742e000081525060400191505060405180910390fd5b600c60008573ffffffffffffffffffffffffffffffffffffffff1673ffffffffffffffffffffffffffffffffffffffff16815260200190815260200160002060008473ffffffffffffffffffffffffffffffffffffffff1673ffffffffffffffffffffffffffffffffffffffff168152602001908152602001600020600083815260200190815260200160002054600d60008573ffffffffffffffffffffffffffffffffffffffff1673ffffffffffffffffffffffffffffffffffffffff16815260200190815260200160002054101515156115ec57600080fd5b6115f7848484611322565b151561160257600080fd5b61160d838584611322565b151561161857600080fd5b611623848484612641565b15151561162f57600080fd5b61163a838584612641565b15151561164657600080fd5b8373ffffffffffffffffffffffffffffffffffffffff16600e60009054906101000a900473ffffffffffffffffffffffffffffffffffffffff1673ffffffffffffffffffffffffffffffffffffffff161415156116a257600080fd5b600560008573ffffffffffffffffffffffffffffffffffffffff1673ffffffffffffffffffffffffffffffffffffffff1681526020019081526020016000206000838152602001908152602001600020600a0160009054906101000a900460ff16151561170e57600080fd5b6117188483614b3b565b151561172357600080fd5b6001600b60008673ffffffffffffffffffffffffffffffffffffffff1673ffffffffffffffffffffffffffffffffffffffff16815260200190815260200160002060008573ffffffffffffffffffffffffffffffffffffffff1673ffffffffffffffffffffffffffffffffffffffff168152602001908152602001600020600084815260200190815260200160002060006101000a81548160ff0219169083151502179055506000600560008673ffffffffffffffffffffffffffffffffffffffff1673ffffffffffffffffffffffffffffffffffffffff168152602001908152602001600020600084815260200190815260200160002060030160006101000a81548160ff02191690831515021790555082600560008673ffffffffffffffffffffffffffffffffffffffff1673ffffffffffffffffffffffffffffffffffffffff1681526020019081526020016000206000848152602001908152602001600020600a0160016101000a81548173ffffffffffffffffffffffffffffffffffffffff021916908373ffffffffffffffffffffffffffffffffffffffff1602179055507f2ae44c65eb67e761c3480ce32a5df1276d25d02c42b7585274cc18c5b59f33378484846001604051808573ffffffffffffffffffffffffffffffffffffffff1673ffffffffffffffffffffffffffffffffffffffff1681526020018473ffffffffffffffffffffffffffffffffffffffff1673ffffffffffffffffffffffffffffffffffffffff1681526020018381526020018215151515815260200194505050505060405180910390a150505050565b8273ffffffffffffffffffffffffffffffffffffffff1661199982612b3c565b73ffffffffffffffffffffffffffffffffffffffff161415156119bb57600080fd5b600073ffffffffffffffffffffffffffffffffffffffff168273ffffffffffffffffffffffffffffffffffffffff16141515156119f757600080fd5b611a0081612b3c565b73ffffffffffffffffffffffffffffffffffffffff163373ffffffffffffffffffffffffffffffffffffffff161480611a6c57503373ffffffffffffffffffffffffffffffffffffffff16611a54826111a0565b73ffffffffffffffffffffffffffffffffffffffff16145b80611a855750611a84611a7e82612b3c565b33614aa7565b5b1515611a9057600080fd5b611a9a8382614cb6565b611aed6001600260008673ffffffffffffffffffffffffffffffffffffffff1673ffffffffffffffffffffffffffffffffffffffff16815260200190815260200160002054614db990919063ffffffff16565b600260008573ffffffffffffffffffffffffffffffffffffffff1673ffffffffffffffffffffffffffffffffffffffff16815260200190815260200160002081905550611b836001600260008573ffffffffffffffffffffffffffffffffffffffff1673ffffffffffffffffffffffffffffffffffffffff16815260200190815260200160002054614dda90919063ffffffff16565b600260008473ffffffffffffffffffffffffffffffffffffffff1673ffffffffffffffffffffffffffffffffffffffff168152602001908152602001600020819055508160008083815260200190815260200160002060006101000a81548173ffffffffffffffffffffffffffffffffffffffff021916908373ffffffffffffffffffffffffffffffffffffffff160217905550808273ffffffffffffffffffffffffffffffffffffffff168473ffffffffffffffffffffffffffffffffffffffff167fddf252ad1be2c89b69c2b068fc378daa952ba7f163c4a11628f55a4df523b3ef60405160405180910390a4505050565b60008173ffffffffffffffffffffffffffffffffffffffff16600e60009054906101000a900473ffffffffffffffffffffffffffffffffffffffff1673ffffffffffffffffffffffffffffffffffffffff1614151515611cd657600080fd5b600960008373ffffffffffffffffffffffffffffffffffffffff1673ffffffffffffffffffffffffffffffffffffffff168152602001908152602001600020549050919050565b600c60205282600052604060002060205281600052604060002060205280600052604060002060009250925050505481565b81611d5981614c4b565b1515611df3576040517f08c379a000000000000000000000000000000000000000000000000000000000815260040180806020018281038252603e8152602001807f45524337323120746f6b656e2065786973747320666f7220626f6f6b2077697481526020017f682073706563696669656420494420646f6573206e6f742065786973742e000081525060400191505060405180910390fd5b600e60009054906101000a900473ffffffffffffffffffffffffffffffffffffffff1673ffffffffffffffffffffffffffffffffffffffff163373ffffffffffffffffffffffffffffffffffffffff16148015611e7b57508473ffffffffffffffffffffffffffffffffffffffff163373ffffffffffffffffffffffffffffffffffffffff16145b1515611e8657600080fd5b611e908584614b3b565b151515611e9c57600080fd5b611ea7858585612641565b1515611eb257600080fd5b611ebc84846139ee565b6000600b60008673ffffffffffffffffffffffffffffffffffffffff1673ffffffffffffffffffffffffffffffffffffffff16815260200190815260200160002060008773ffffffffffffffffffffffffffffffffffffffff1673ffffffffffffffffffffffffffffffffffffffff168152602001908152602001600020600085815260200190815260200160002060006101000a81548160ff0219169083151502179055506001600560008773ffffffffffffffffffffffffffffffffffffffff1673ffffffffffffffffffffffffffffffffffffffff168152602001908152602001600020600085815260200190815260200160002060030160006101000a81548160ff02191690831515021790555084600560008773ffffffffffffffffffffffffffffffffffffffff1673ffffffffffffffffffffffffffffffffffffffff1681526020019081526020016000206000858152602001908152602001600020600a0160016101000a81548173ffffffffffffffffffffffffffffffffffffffff021916908373ffffffffffffffffffffffffffffffffffffffff16021790555061206b858585614dfb565b5050505050565b600f54600c60008673ffffffffffffffffffffffffffffffffffffffff1673ffffffffffffffffffffffffffffffffffffffff16815260200190815260200160002060008573ffffffffffffffffffffffffffffffffffffffff1673ffffffffffffffffffffffffffffffffffffffff1681526020019081526020016000206000848152602001908152602001600020541015151561211057600080fd5b80600c60008673ffffffffffffffffffffffffffffffffffffffff1673ffffffffffffffffffffffffffffffffffffffff16815260200190815260200160002060008573ffffffffffffffffffffffffffffffffffffffff1673ffffffffffffffffffffffffffffffffffffffff1681526020019081526020016000206000848152602001908152602001600020541415156121ab57600080fd5b6121b6848484611322565b15156121c157600080fd5b6121cc848484612641565b1515156121d857600080fd5b61222a81600d60008673ffffffffffffffffffffffffffffffffffffffff1673ffffffffffffffffffffffffffffffffffffffff16815260200190815260200160002054614dda90919063ffffffff16565b600d60008573ffffffffffffffffffffffffffffffffffffffff1673ffffffffffffffffffffffffffffffffffffffff168152602001908152602001600020819055506001600a60008573ffffffffffffffffffffffffffffffffffffffff1673ffffffffffffffffffffffffffffffffffffffff16815260200190815260200160002060008673ffffffffffffffffffffffffffffffffffffffff1673ffffffffffffffffffffffffffffffffffffffff168152602001908152602001600020600084815260200190815260200160002060006101000a81548160ff0219169083151502179055507f861698d1e1a287ac2f4ae767f4c9b125a060975f64c546a9a9ff9060423951418382604051808373ffffffffffffffffffffffffffffffffffffffff1673ffffffffffffffffffffffffffffffffffffffff1681526020018281526020019250505060405180910390a150505050565b60105481565b8161239481614c4b565b151561242e576040517f08c379a000000000000000000000000000000000000000000000000000000000815260040180806020018281038252603e8152602001807f45524337323120746f6b656e2065786973747320666f7220626f6f6b2077697481526020017f682073706563696669656420494420646f6573206e6f742065786973742e000081525060400191505060405180910390fd5b3373ffffffffffffffffffffffffffffffffffffffff168573ffffffffffffffffffffffffffffffffffffffff1614151561246857600080fd5b600560003373ffffffffffffffffffffffffffffffffffffffff1673ffffffffffffffffffffffffffffffffffffffff1681526020019081526020016000206000848152602001908152602001600020600a0160009054906101000a900460ff1615156124d457600080fd5b6124df858585611322565b1515156124eb57600080fd5b6124f6858585612641565b15151561250257600080fd5b81600c60008773ffffffffffffffffffffffffffffffffffffffff1673ffffffffffffffffffffffffffffffffffffffff16815260200190815260200160002060008673ffffffffffffffffffffffffffffffffffffffff1673ffffffffffffffffffffffffffffffffffffffff1681526020019081526020016000206000858152602001908152602001600020819055506001600a60008773ffffffffffffffffffffffffffffffffffffffff1673ffffffffffffffffffffffffffffffffffffffff16815260200190815260200160002060008673ffffffffffffffffffffffffffffffffffffffff1673ffffffffffffffffffffffffffffffffffffffff168152602001908152602001600020600085815260200190815260200160002060006101000a81548160ff0219169083151502179055505050505050565b6000600b60008573ffffffffffffffffffffffffffffffffffffffff1673ffffffffffffffffffffffffffffffffffffffff16815260200190815260200160002060008473ffffffffffffffffffffffffffffffffffffffff1673ffffffffffffffffffffffffffffffffffffffff168152602001908152602001600020600083815260200190815260200160002060009054906101000a900460ff1690509392505050565b600e60009054906101000a900473ffffffffffffffffffffffffffffffffffffffff1681565b8161271781614c4b565b15156127b1576040517f08c379a000000000000000000000000000000000000000000000000000000000815260040180806020018281038252603e8152602001807f45524337323120746f6b656e2065786973747320666f7220626f6f6b2077697481526020017f682073706563696669656420494420646f6573206e6f742065786973742e000081525060400191505060405180910390fd5b8373ffffffffffffffffffffffffffffffffffffffff163373ffffffffffffffffffffffffffffffffffffffff161415156127eb57600080fd5b8373ffffffffffffffffffffffffffffffffffffffff168573ffffffffffffffffffffffffffffffffffffffff161415151561282657600080fd5b612831858585612641565b151561283c57600080fd5b6128468484613e01565b15151561285257600080fd5b61285c84846138d5565b6000600a60008773ffffffffffffffffffffffffffffffffffffffff1673ffffffffffffffffffffffffffffffffffffffff16815260200190815260200160002060008673ffffffffffffffffffffffffffffffffffffffff1673ffffffffffffffffffffffffffffffffffffffff168152602001908152602001600020600085815260200190815260200160002060006101000a81548160ff0219169083151502179055506000600a60008673ffffffffffffffffffffffffffffffffffffffff1673ffffffffffffffffffffffffffffffffffffffff16815260200190815260200160002060008773ffffffffffffffffffffffffffffffffffffffff1673ffffffffffffffffffffffffffffffffffffffff168152602001908152602001600020600085815260200190815260200160002060006101000a81548160ff0219169083151502179055506000600b60008773ffffffffffffffffffffffffffffffffffffffff1673ffffffffffffffffffffffffffffffffffffffff16815260200190815260200160002060008673ffffffffffffffffffffffffffffffffffffffff1673ffffffffffffffffffffffffffffffffffffffff168152602001908152602001600020600085815260200190815260200160002060006101000a81548160ff0219169083151502179055507ff8cb3a702cc9afaabb95a48bae590122d4edb7966f2329cddcabef2719c91612600183604051808315151515815260200180602001828103825283818151815260200191508051906020019080838360005b83811015612abc578082015181840152602081019050612aa1565b50505050905090810190601f168015612ae95780820380516001836020036101000a031916815260200191505b50935050505060405180910390a15050505050565b600481815481101515612b0d57fe5b906000526020600020016000915054906101000a900473ffffffffffffffffffffffffffffffffffffffff1681565b600080600083815260200190815260200160002060009054906101000a900473ffffffffffffffffffffffffffffffffffffffff169050919050565b80612b8281614c4b565b1515612c1c576040517f08c379a000000000000000000000000000000000000000000000000000000000815260040180806020018281038252603e8152602001807f45524337323120746f6b656e2065786973747320666f7220626f6f6b2077697481526020017f682073706563696669656420494420646f6573206e6f742065786973742e000081525060400191505060405180910390fd5b7f2101cee8c8e2d9a433f6daebaad70e579614f71d056373c8d21218b0b54539b33384604051808373ffffffffffffffffffffffffffffffffffffffff1673ffffffffffffffffffffffffffffffffffffffff1681526020018273ffffffffffffffffffffffffffffffffffffffff1673ffffffffffffffffffffffffffffffffffffffff1681526020019250505060405180910390a1600560008473ffffffffffffffffffffffffffffffffffffffff1673ffffffffffffffffffffffffffffffffffffffff1681526020019081526020016000206000838152602001908152602001600020600a0160009054906101000a900460ff161515612d1f57600080fd5b8273ffffffffffffffffffffffffffffffffffffffff163373ffffffffffffffffffffffffffffffffffffffff1614151515612d5a57600080fd5b612d648383614b3b565b1515612d6f57600080fd5b612d7a338484611322565b151515612d8657600080fd5b612d91338484612641565b151515612d9d57600080fd5b505050565b60008073ffffffffffffffffffffffffffffffffffffffff168273ffffffffffffffffffffffffffffffffffffffff1614151515612ddf57600080fd5b600260008373ffffffffffffffffffffffffffffffffffffffff1673ffffffffffffffffffffffffffffffffffffffff168152602001908152602001600020549050919050565b6040805190810160405280600a81526020017f426f6f6b4c65646765720000000000000000000000000000000000000000000081525081565b600f5481565b6000600c60008573ffffffffffffffffffffffffffffffffffffffff1673ffffffffffffffffffffffffffffffffffffffff16815260200190815260200160002060008473ffffffffffffffffffffffffffffffffffffffff1673ffffffffffffffffffffffffffffffffffffffff16815260200190815260200160002060008381526020019081526020016000205490509392505050565b81612f0881614c4b565b1515612fa2576040517f08c379a000000000000000000000000000000000000000000000000000000000815260040180806020018281038252603e8152602001807f45524337323120746f6b656e2065786973747320666f7220626f6f6b2077697481526020017f682073706563696669656420494420646f6573206e6f742065786973742e000081525060400191505060405180910390fd5b3373ffffffffffffffffffffffffffffffffffffffff168473ffffffffffffffffffffffffffffffffffffffff16141515612fdc57600080fd5b8473ffffffffffffffffffffffffffffffffffffffff168473ffffffffffffffffffffffffffffffffffffffff161415151561301757600080fd5b613022848685611322565b15151561302e57600080fd5b613039848685612641565b15151561304557600080fd5b61304f8484614b3b565b15151561305b57600080fd5b600061306685611c77565b11151561307257600080fd5b61307c8484613e01565b151561308757600080fd5b6001600b60008773ffffffffffffffffffffffffffffffffffffffff1673ffffffffffffffffffffffffffffffffffffffff16815260200190815260200160002060008673ffffffffffffffffffffffffffffffffffffffff1673ffffffffffffffffffffffffffffffffffffffff168152602001908152602001600020600085815260200190815260200160002060006101000a81548160ff0219169083151502179055507f2ae44c65eb67e761c3480ce32a5df1276d25d02c42b7585274cc18c5b59f33378585856001604051808573ffffffffffffffffffffffffffffffffffffffff1673ffffffffffffffffffffffffffffffffffffffff1681526020018473ffffffffffffffffffffffffffffffffffffffff1673ffffffffffffffffffffffffffffffffffffffff1681526020018381526020018215151515815260200194505050505060405180910390a15050505050565b6000600d60008373ffffffffffffffffffffffffffffffffffffffff1673ffffffffffffffffffffffffffffffffffffffff168152602001908152602001600020549050919050565b6000613233615394565b6000600e60009054906101000a900473ffffffffffffffffffffffffffffffffffffffff1673ffffffffffffffffffffffffffffffffffffffff163373ffffffffffffffffffffffffffffffffffffffff161415156132fa576040517f08c379a000000000000000000000000000000000000000000000000000000000815260040180806020018281038252601a8152602001807f6d73672e73656e646572206973206e6f74205f6d696e7465722e00000000000081525060200191505060405180910390fd5b610180604051908101604052808a815260200160008152602001428152602001600115158152602001602060405190810160405280600081525081526020018981526020018881526020018781526020018681526020018581526020016001151581526020018b73ffffffffffffffffffffffffffffffffffffffff168152509150600560008b73ffffffffffffffffffffffffffffffffffffffff1673ffffffffffffffffffffffffffffffffffffffff16815260200190815260200160002060008a8152602001908152602001600020600a0160009054906101000a900460ff161515156133e957600080fd5b6001600660008c73ffffffffffffffffffffffffffffffffffffffff1673ffffffffffffffffffffffffffffffffffffffff1681526020019081526020016000208a908060018154018082558091505090600182039060005260206000200160009091929091909150550390508082602001818152505081600560008c73ffffffffffffffffffffffffffffffffffffffff1673ffffffffffffffffffffffffffffffffffffffff16815260200190815260200160002060008b815260200190815260200160002060008201518160000155602082015181600101556040820151816002015560608201518160030160006101000a81548160ff021916908315150217905550608082015181600401908051906020019061350b929190615410565b5060a0820151816005015560c0820151816006019080519060200190613532929190615410565b5060e082015181600701908051906020019061354f929190615410565b5061010082015181600801908051906020019061356d929190615410565b5061012082015181600901908051906020019061358b929190615410565b5061014082015181600a0160006101000a81548160ff02191690831515021790555061016082015181600a0160016101000a81548173ffffffffffffffffffffffffffffffffffffffff021916908373ffffffffffffffffffffffffffffffffffffffff1602179055509050506136028a8a61505a565b7f36cd739b0d83505a1fbc492e37aba232dac482ae8aa4c2ab0a4ab5c366ceeda6600560008c73ffffffffffffffffffffffffffffffffffffffff1673ffffffffffffffffffffffffffffffffffffffff16815260200190815260200160002060008b8152602001908152602001600020600701600560008d73ffffffffffffffffffffffffffffffffffffffff1673ffffffffffffffffffffffffffffffffffffffff16815260200190815260200160002060008c8152602001908152602001600020600801600560008e73ffffffffffffffffffffffffffffffffffffffff1673ffffffffffffffffffffffffffffffffffffffff16815260200190815260200160002060008d8152602001908152602001600020600901604051808060200180602001806020018481038452878181546001816001161561010002031660029004815260200191508054600181600116156101000203166002900480156137ad5780601f10613782576101008083540402835291602001916137ad565b820191906000526020600020905b81548152906001019060200180831161379057829003601f168201915b50508481038352868181546001816001161561010002031660029004815260200191508054600181600116156101000203166002900480156138305780601f1061380557610100808354040283529160200191613830565b820191906000526020600020905b81548152906001019060200180831161381357829003601f168201915b50508481038252858181546001816001161561010002031660029004815260200191508054600181600116156101000203166002900480156138b35780601f10613888576101008083540402835291602001916138b3565b820191906000526020600020905b81548152906001019060200180831161389657829003601f168201915b5050965050505050505060405180910390a18892505050979650505050505050565b6138df8282613e01565b1515156138eb57600080fd5b6001600860008473ffffffffffffffffffffffffffffffffffffffff1673ffffffffffffffffffffffffffffffffffffffff168152602001908152602001600020600083815260200190815260200160002060006101000a81548160ff0219169083151502179055506139a76001600960008573ffffffffffffffffffffffffffffffffffffffff1673ffffffffffffffffffffffffffffffffffffffff16815260200190815260200160002054614dda90919063ffffffff16565b600960008473ffffffffffffffffffffffffffffffffffffffff1673ffffffffffffffffffffffffffffffffffffffff168152602001908152602001600020819055505050565b6139f88282613e01565b1515613a0357600080fd5b6000613a0e83611c77565b111515613a1a57600080fd5b600860008373ffffffffffffffffffffffffffffffffffffffff1673ffffffffffffffffffffffffffffffffffffffff168152602001908152602001600020600082815260200190815260200160002060006101000a81549060ff0219169055613acd6001600960008573ffffffffffffffffffffffffffffffffffffffff1673ffffffffffffffffffffffffffffffffffffffff16815260200190815260200160002054614db990919063ffffffff16565b600960008473ffffffffffffffffffffffffffffffffffffffff1673ffffffffffffffffffffffffffffffffffffffff168152602001908152602001600020819055505050565b3373ffffffffffffffffffffffffffffffffffffffff168273ffffffffffffffffffffffffffffffffffffffff1614151515613b4f57600080fd5b80600360003373ffffffffffffffffffffffffffffffffffffffff1673ffffffffffffffffffffffffffffffffffffffff16815260200190815260200160002060008473ffffffffffffffffffffffffffffffffffffffff1673ffffffffffffffffffffffffffffffffffffffff16815260200190815260200160002060006101000a81548160ff0219169083151502179055508173ffffffffffffffffffffffffffffffffffffffff163373ffffffffffffffffffffffffffffffffffffffff167f17307eab39ab6107e8899845ad3d59bd9653f200f220920489ca2b5937696c3183604051808215151515815260200191505060405180910390a35050565b60115481565b600081613c6281614c4b565b1515613cfc576040517f08c379a000000000000000000000000000000000000000000000000000000000815260040180806020018281038252603e8152602001807f45524337323120746f6b656e2065786973747320666f7220626f6f6b2077697481526020017f682073706563696669656420494420646f6573206e6f742065786973742e000081525060400191505060405180910390fd5b600560008573ffffffffffffffffffffffffffffffffffffffff1673ffffffffffffffffffffffffffffffffffffffff16815260200190815260200160002060008481526020019081526020016000206002015491505092915050565b60008173ffffffffffffffffffffffffffffffffffffffff16600e60009054906101000a900473ffffffffffffffffffffffffffffffffffffffff1673ffffffffffffffffffffffffffffffffffffffff16141515613db757600080fd5b600660008373ffffffffffffffffffffffffffffffffffffffff1673ffffffffffffffffffffffffffffffffffffffff168152602001908152602001600020805490509050919050565b60008273ffffffffffffffffffffffffffffffffffffffff16600e60009054906101000a900473ffffffffffffffffffffffffffffffffffffffff1673ffffffffffffffffffffffffffffffffffffffff1614151515613e6057600080fd5b600860008473ffffffffffffffffffffffffffffffffffffffff1673ffffffffffffffffffffffffffffffffffffffff168152602001908152602001600020600083815260200190815260200160002060009054906101000a900460ff16905092915050565b600080600084613ed581614c4b565b1515613f6f576040517f08c379a000000000000000000000000000000000000000000000000000000000815260040180806020018281038252603e8152602001807f45524337323120746f6b656e2065786973747320666f7220626f6f6b2077697481526020017f682073706563696669656420494420646f6573206e6f742065786973742e000081525060400191505060405180910390fd5b8673ffffffffffffffffffffffffffffffffffffffff163373ffffffffffffffffffffffffffffffffffffffff161480613ff65750600e60009054906101000a900473ffffffffffffffffffffffffffffffffffffffff1673ffffffffffffffffffffffffffffffffffffffff163373ffffffffffffffffffffffffffffffffffffffff16145b151561400157600080fd5b600560008873ffffffffffffffffffffffffffffffffffffffff1673ffffffffffffffffffffffffffffffffffffffff1681526020019081526020016000206000878152602001908152602001600020600a0160009054906101000a900460ff16151561406d57600080fd5b600560008873ffffffffffffffffffffffffffffffffffffffff1673ffffffffffffffffffffffffffffffffffffffff1681526020019081526020016000206000878152602001908152602001600020600101549250600660008873ffffffffffffffffffffffffffffffffffffffff1673ffffffffffffffffffffffffffffffffffffffff1681526020019081526020016000206001600660008a73ffffffffffffffffffffffffffffffffffffffff1673ffffffffffffffffffffffffffffffffffffffff168152602001908152602001600020805490500381548110151561415457fe5b9060005260206000200154915081600660008973ffffffffffffffffffffffffffffffffffffffff1673ffffffffffffffffffffffffffffffffffffffff168152602001908152602001600020848154811015156141ae57fe5b906000526020600020018190555082600560008973ffffffffffffffffffffffffffffffffffffffff1673ffffffffffffffffffffffffffffffffffffffff168152602001908152602001600020600084815260200190815260200160002060010181905550600660008873ffffffffffffffffffffffffffffffffffffffff1673ffffffffffffffffffffffffffffffffffffffff1681526020019081526020016000208054809190600190036142669190615490565b50841561438a57600560008873ffffffffffffffffffffffffffffffffffffffff1673ffffffffffffffffffffffffffffffffffffffff1681526020019081526020016000206000878152602001908152602001600020600080820160009055600182016000905560028201600090556003820160006101000a81549060ff02191690556004820160006142fa91906154bc565b600582016000905560068201600061431291906154bc565b60078201600061432291906154bc565b60088201600061433291906154bc565b60098201600061434291906154bc565b600a820160006101000a81549060ff0219169055600a820160016101000a81549073ffffffffffffffffffffffffffffffffffffffff0219169055505061438987876151f2565b5b600193505050509392505050565b806143a281614c4b565b151561443c576040517f08c379a000000000000000000000000000000000000000000000000000000000815260040180806020018281038252603e8152602001807f45524337323120746f6b656e2065786973747320666f7220626f6f6b2077697481526020017f682073706563696669656420494420646f6573206e6f742065786973742e000081525060400191505060405180910390fd5b600560008473ffffffffffffffffffffffffffffffffffffffff1673ffffffffffffffffffffffffffffffffffffffff1681526020019081526020016000206000838152602001908152602001600020600a0160009054906101000a900460ff1615156144a857600080fd5b6007600083815260200190815260200160002060009054906101000a900460ff161515156144d557600080fd5b60016007600084815260200190815260200160002060006101000a81548160ff02191690831515021790555061450d83836000613ec6565b507f754c0b8d6ffc9178fd4d167f660708e7769c991c4904f10c5436e2ee03b986b360018360405180831515151581526020018281526020019250505060405180910390a1505050565b8261456181614c4b565b15156145fb576040517f08c379a000000000000000000000000000000000000000000000000000000000815260040180806020018281038252603e8152602001807f45524337323120746f6b656e2065786973747320666f7220626f6f6b2077697481526020017f682073706563696669656420494420646f6573206e6f742065786973742e000081525060400191505060405180910390fd5b8161460581614c4b565b151561469f576040517f08c379a000000000000000000000000000000000000000000000000000000000815260040180806020018281038252603e8152602001807f45524337323120746f6b656e2065786973747320666f7220626f6f6b2077697481526020017f682073706563696669656420494420646f6573206e6f742065786973742e000081525060400191505060405180910390fd5b60001515600a60008873ffffffffffffffffffffffffffffffffffffffff1673ffffffffffffffffffffffffffffffffffffffff16815260200190815260200160002060008673ffffffffffffffffffffffffffffffffffffffff1673ffffffffffffffffffffffffffffffffffffffff168152602001908152602001600020600087815260200190815260200160002060009054906101000a900460ff16151514151561474c57600080fd5b60001515600b60008873ffffffffffffffffffffffffffffffffffffffff1673ffffffffffffffffffffffffffffffffffffffff16815260200190815260200160002060008673ffffffffffffffffffffffffffffffffffffffff1673ffffffffffffffffffffffffffffffffffffffff168152602001908152602001600020600087815260200190815260200160002060009054906101000a900460ff1615151415156147f957600080fd5b60001515600a60008673ffffffffffffffffffffffffffffffffffffffff1673ffffffffffffffffffffffffffffffffffffffff16815260200190815260200160002060008873ffffffffffffffffffffffffffffffffffffffff1673ffffffffffffffffffffffffffffffffffffffff168152602001908152602001600020600085815260200190815260200160002060009054906101000a900460ff1615151415156148a657600080fd5b60001515600b60008673ffffffffffffffffffffffffffffffffffffffff1673ffffffffffffffffffffffffffffffffffffffff16815260200190815260200160002060008873ffffffffffffffffffffffffffffffffffffffff1673ffffffffffffffffffffffffffffffffffffffff168152602001908152602001600020600085815260200190815260200160002060009054906101000a900460ff16151514151561495357600080fd5b6001600a60008873ffffffffffffffffffffffffffffffffffffffff1673ffffffffffffffffffffffffffffffffffffffff16815260200190815260200160002060008673ffffffffffffffffffffffffffffffffffffffff1673ffffffffffffffffffffffffffffffffffffffff168152602001908152602001600020600087815260200190815260200160002060006101000a81548160ff0219169083151502179055506001600a60008673ffffffffffffffffffffffffffffffffffffffff1673ffffffffffffffffffffffffffffffffffffffff16815260200190815260200160002060008873ffffffffffffffffffffffffffffffffffffffff1673ffffffffffffffffffffffffffffffffffffffff168152602001908152602001600020600085815260200190815260200160002060006101000a81548160ff021916908315150217905550505050505050565b6000600360008473ffffffffffffffffffffffffffffffffffffffff1673ffffffffffffffffffffffffffffffffffffffff16815260200190815260200160002060008373ffffffffffffffffffffffffffffffffffffffff1673ffffffffffffffffffffffffffffffffffffffff16815260200190815260200160002060009054906101000a900460ff16905092915050565b600081614b4781614c4b565b1515614be1576040517f08c379a000000000000000000000000000000000000000000000000000000000815260040180806020018281038252603e8152602001807f45524337323120746f6b656e2065786973747320666f7220626f6f6b2077697481526020017f682073706563696669656420494420646f6573206e6f742065786973742e000081525060400191505060405180910390fd5b600560008573ffffffffffffffffffffffffffffffffffffffff1673ffffffffffffffffffffffffffffffffffffffff168152602001908152602001600020600084815260200190815260200160002060030160009054906101000a900460ff1691505092915050565b60008073ffffffffffffffffffffffffffffffffffffffff1660008084815260200190815260200160002060009054906101000a900473ffffffffffffffffffffffffffffffffffffffff1673ffffffffffffffffffffffffffffffffffffffff1614159050919050565b8173ffffffffffffffffffffffffffffffffffffffff16614cd682612b3c565b73ffffffffffffffffffffffffffffffffffffffff16141515614cf857600080fd5b600073ffffffffffffffffffffffffffffffffffffffff166001600083815260200190815260200160002060009054906101000a900473ffffffffffffffffffffffffffffffffffffffff1673ffffffffffffffffffffffffffffffffffffffff16141515614db55760006001600083815260200190815260200160002060006101000a81548173ffffffffffffffffffffffffffffffffffffffff021916908373ffffffffffffffffffffffffffffffffffffffff1602179055505b5050565b600080838311151515614dcb57600080fd5b82840390508091505092915050565b6000808284019050838110151515614df157600080fd5b8091505092915050565b600081614e0781614c4b565b1515614ea1576040517f08c379a000000000000000000000000000000000000000000000000000000000815260040180806020018281038252603e8152602001807f45524337323120746f6b656e2065786973747320666f7220626f6f6b2077697481526020017f682073706563696669656420494420646f6573206e6f742065786973742e000081525060400191505060405180910390fd5b600c60008673ffffffffffffffffffffffffffffffffffffffff1673ffffffffffffffffffffffffffffffffffffffff16815260200190815260200160002060008573ffffffffffffffffffffffffffffffffffffffff1673ffffffffffffffffffffffffffffffffffffffff1681526020019081526020016000206000848152602001908152602001600020549150615010600c60008773ffffffffffffffffffffffffffffffffffffffff1673ffffffffffffffffffffffffffffffffffffffff16815260200190815260200160002060008673ffffffffffffffffffffffffffffffffffffffff1673ffffffffffffffffffffffffffffffffffffffff168152602001908152602001600020600085815260200190815260200160002054600d60008773ffffffffffffffffffffffffffffffffffffffff1673ffffffffffffffffffffffffffffffffffffffff16815260200190815260200160002054614db990919063ffffffff16565b600d60008673ffffffffffffffffffffffffffffffffffffffff1673ffffffffffffffffffffffffffffffffffffffff168152602001908152602001600020819055505050505050565b600073ffffffffffffffffffffffffffffffffffffffff168273ffffffffffffffffffffffffffffffffffffffff161415151561509657600080fd5b61509f81614c4b565b1515156150ab57600080fd5b8160008083815260200190815260200160002060006101000a81548173ffffffffffffffffffffffffffffffffffffffff021916908373ffffffffffffffffffffffffffffffffffffffff16021790555061514f6001600260008573ffffffffffffffffffffffffffffffffffffffff1673ffffffffffffffffffffffffffffffffffffffff16815260200190815260200160002054614dda90919063ffffffff16565b600260008473ffffffffffffffffffffffffffffffffffffffff1673ffffffffffffffffffffffffffffffffffffffff16815260200190815260200160002081905550808273ffffffffffffffffffffffffffffffffffffffff16600073ffffffffffffffffffffffffffffffffffffffff167fddf252ad1be2c89b69c2b068fc378daa952ba7f163c4a11628f55a4df523b3ef60405160405180910390a45050565b6151fc8282614cb6565b6152068282615266565b80600073ffffffffffffffffffffffffffffffffffffffff168373ffffffffffffffffffffffffffffffffffffffff167fddf252ad1be2c89b69c2b068fc378daa952ba7f163c4a11628f55a4df523b3ef60405160405180910390a45050565b8173ffffffffffffffffffffffffffffffffffffffff1661528682612b3c565b73ffffffffffffffffffffffffffffffffffffffff161415156152a857600080fd5b6152fb6001600260008573ffffffffffffffffffffffffffffffffffffffff1673ffffffffffffffffffffffffffffffffffffffff16815260200190815260200160002054614db990919063ffffffff16565b600260008473ffffffffffffffffffffffffffffffffffffffff1673ffffffffffffffffffffffffffffffffffffffff16815260200190815260200160002081905550600080600083815260200190815260200160002060006101000a81548173ffffffffffffffffffffffffffffffffffffffff021916908373ffffffffffffffffffffffffffffffffffffffff1602179055505050565b61018060405190810160405280600081526020016000815260200160008152602001600015158152602001606081526020016000815260200160608152602001606081526020016060815260200160608152602001600015158152602001600073ffffffffffffffffffffffffffffffffffffffff1681525090565b828054600181600116156101000203166002900490600052602060002090601f016020900481019282601f1061545157805160ff191683800117855561547f565b8280016001018555821561547f579182015b8281111561547e578251825591602001919060010190615463565b5b50905061548c9190615504565b5090565b8154818355818111156154b7578183600052602060002091820191016154b69190615504565b5b505050565b50805460018160011615610100020316600290046000825580601f106154e25750615501565b601f0160209004906000526020600020908101906155009190615504565b5b50565b61552691905b8082111561552257600081600090555060010161550a565b5090565b905600a165627a7a7230582020006e307c2a3b6497d090e8e6b9298950f0a2f1d3af5a0c9dd48b36aaaea4960029",
  "source": "\npragma solidity ^0.4.24;\nimport \"./Tokens/ERC721.sol\";\nimport \"./Support/SafeMath.sol\";\n\n/**\n * This contract inherits from ERC721\n\nEvery User/address/entity has a library of books. Calling this contract is\nequivalent to creating their own library.\n\n\n */\ncontract BookLedger is ERC721 {\n  string public constant contractName = 'BookLedger';\n  using SafeMath for uint256;\n\n  event bookRequested();\n  event people(address msgSender, address owner);\n  event bookAdded(string publisher, string author, string name );\n  event bookRemoved(string publisher, string author, string name );\n  event escrowCommitted(address newOwner, uint256 escrowAmount );\n  event bookInTransmission(address currentOwner, address tempOwner, uint256 bookID, bool InTransmission );\n  event bookReceived(bool transmissionComplete, string bookCondition );\n  event bookIsLost(bool bookLost, uint256 bookID);\n\n\n  struct Book {\n    uint256 bookID;\n    uint256 bookPointer;\n    uint256 timeOfOrigin;\n    bool availability;\n    string bookPossession;\n    uint256 genre;\n    string country;\n    string publisher;\n    string author;\n    string name;\n    bool exist;\n    address holder;\n  }\n\n\n  address[] public _entity;\n  //address private _wallet; //wallet address set to minter.. Should be the contracts address\n\n  // index books by entity address and bookID\n  mapping(address => mapping(uint256 => Book)) internal _books;\n  // _booksList contains a list of all books owned by an entity\n  // _lostBooksList contains a mapping of all the lost books in the universe\n  mapping(address => uint256[]) internal _booksList;\n  mapping(uint256 => bool) internal _lostBooksList;\n\n  // Used to check if a user have a book\n  mapping(address => mapping(uint256 => bool)) _doesUserHaveBook;\n  mapping(address => uint256) _userBookCount;\n\n  // Commit books for user. The indexing for this structure corresponds to the\n  // address of the sender, receiver of the book, and the book ID\n  mapping(address => mapping(address => mapping(uint256 => bool))) internal _committed;\n  // Will hold the transmission status of a book corresponding to the sender, receiver, and bookID\n  // The book needs to be commited for transmission and the status must be updated\n  // corresponding to how the book is being transmitted.\n  mapping(address => mapping(address => mapping(uint256 => bool))) internal _bookTransmission;\n\n  // determine escrow amount for book trade or rent. is internal necessary for all of these?\n  // contract holds escrow for each address\n  mapping(address => mapping(address => mapping(uint256 => uint256))) public _bookEscrow;\n  mapping(address => uint256) internal _contractEscrow;\n\n  address public _minter;\n  uint256 public _minEscrow; // Set the min escrow number\n  uint256 public _maxEscrow; // Limit the max escrow number\n\n  uint256 public _maxBookCount; // Limit the number of books a user can take out\n\n  constructor(\n    address minter,\n    uint256 minEscrow,\n    uint256 maxEscrow\n  ) public {\n      _minter = minter;\n      _minEscrow = minEscrow;\n      _maxEscrow = minEscrow;\n  }\n  modifier onlyMinter() {\n    require(msg.sender == _minter, \"msg.sender is not _minter.\");\n    _;\n  }\n  modifier exists(uint256 bookID) {\n      require(_exists(bookID), \"ERC721 token exists for book with specified ID does not exist.\");\n    _;\n  }\n  /**\n   * Mint new book to library\n     May want when creating a book to make a hash of the concat of some of the\n     properties of the book for sharing\n   */\n   function newBook ( address owner,\n\t\t                  uint256 bookID,\n                      uint256 genre,\n                      string country,\n                      string publisher,\n                      string author,\n                      string name )\n      public onlyMinter returns(uint256)\n   {\n     Book memory book = Book({\n       bookID: bookID,\n       bookPointer: 0,\n       timeOfOrigin: now,\n       availability: true,\n       bookPossession: \"\",\n       genre: genre,\n       country: country,\n       publisher: publisher,\n       author: author,\n       name: name,\n       exist: true,\n       holder: owner\n\t });\n      // Require the book id does not exist. This is the easiest way to check if\n      // the book has already been added to the specified mapping\n      require(!_books[owner][bookID].exist);\n\n      // Update the placeholder bookPointer with position in owners bookList\n      uint256 bookPointer = _booksList[owner].push(bookID) - 1;\n      book.bookPointer = bookPointer;\n      _books[owner][bookID] = book;\n\n      /* Mint new book to the library */\n      _mint(owner, bookID);\n\n      emit bookAdded(_books[owner][bookID].publisher, _books[owner][bookID].author, _books[owner][bookID].name);\n      return bookID;\n   }\n\n   /** Public view functions\n    Common tests for property of book\n     - book.exists\n     - exists(bookID)\n     - isBookAvailable(owner, bookID)\n     - isBookCommitted(sender, receiver, bookID)\n     - transmissionStatus(owner, requester, bookID)\n     - accountEscrow(requester)\n     - bookEscrow(owner, requester, bookID)\n    */\n\n   /** Get origin date of book being placed in library. */\n    function originDateOfBook ( address owner, uint256 bookID )\n      external exists(bookID) view returns(uint256)\n    { return _books[owner][bookID].timeOfOrigin; }\n\n    /** Get number of books in Library  */\n    function numberOfBookInLibrary ( address owner )\n    public view returns(uint256)\n    {\n      require(_minter == owner);\n      return _booksList[owner].length;\n    }\n\n    /** Get number of books a user have  */\n    function numberOfAUserHolds ( address owner )\n    public view returns(uint256)\n    {\n      require(_minter != owner);\n      return _userBookCount[owner];\n    }\n\n    /** Get number of books a user have  */\n    function doesUserHaveBook ( address owner, uint256 bookID )\n    public view returns(bool)\n    {\n      require(_minter != owner);\n      return _doesUserHaveBook[owner][bookID];\n    }\n\n    /* Add book to user */\n    function addBookToUser ( address owner, uint256 bookID )\n    {\n      // Check to see whether the user have the book in their possession\n      require(!doesUserHaveBook ( owner, bookID ));\n      _doesUserHaveBook[owner][bookID] = true;\n      _userBookCount[owner] = _userBookCount[owner].add(1);\n    }\n    /* Remove book from user */\n    function removeBookFromUser (  address owner, uint256 bookID  )\n    {\n      // Check to see whether the user have the book in their possession\n      require(doesUserHaveBook ( owner, bookID ));\n      // Check if removing the book will bring the count of total books to zero\n      require(numberOfAUserHolds ( owner ) > 0);\n      delete _doesUserHaveBook[owner][bookID];\n      _userBookCount[owner] = _userBookCount[owner].sub(1);\n    }\n   /**  Get the availability of book from library. */\n    function isBookAvailable( address owner, uint256 bookID )\n    public exists(bookID) view returns(bool)\n    { return _books[owner][bookID].availability; }\n\n    /** Check that the book is committed between two entities */\n    function isBookCommitted ( address sender, address receiver, uint256 bookID )\n    public exists(bookID) view returns(bool)\n    { return _committed[sender][receiver][bookID]; }\n\n    /** Check if the book is in transmission */\n    function transmissionStatus( address owner, address requester, uint256 bookID )\n    public view returns(bool)\n    { return _bookTransmission[owner][requester][bookID]; }\n\n    /** Check total account escrow for an entity */\n    function accountEscrow ( address requester )\n    public view returns(uint256)\n    { return _contractEscrow[requester]; }\n\n    /** Check security deposit / Escrow set for transferring a book */\n    function bookEscrow ( address owner, address requester, uint256 bookID )\n    public view returns(uint256)\n    { return _bookEscrow[owner][requester][bookID]; }\n\n  /**\n   *  Request book from the library\n      msg.sender: is the entity requesting to trade or checkout a book\n      owner: is the current owner of the book; the library\n      bookID: bookID of book being requested\n\n      If all statements pass, LibraryApp will contact owner that\n      msg.sender is requesting a book\n   */\n   function requestBook ( address owner, uint256 bookID ) exists(bookID) public\n   {\n     emit people( msg.sender, owner);\n\n     // You should not be able to request a book that you are the owner of\n     // Question: is this necessary?\n     require(_books[owner][bookID].exist);\n\n     // The requester should not be able to request a book from itself\n     require(msg.sender != owner);\n\n     // The book should currently be in the possesion of the library\n     // and not being loaned out to someone at the moment\n     require(isBookAvailable(owner,bookID));\n\n     // The book should not be in transmission or currently committed to a\n     // transaction.\n     require(!isBookCommitted( msg.sender, owner, bookID));\n     require(!transmissionStatus( msg.sender, owner, bookID));\n\n\n     // Question: Should probably put some code here to confirm that the book\n     // has been requested.\n   }\n\n   /**\n      Sender establishes an escrow value for receiver to deposit to the contract\n      as a security deposit should something happen to the book\n\n      sender: entity that currently owns book, eg. librarian\n      receiver: entity requesting book from sender, eg bibliophile\n    */\n   function commitBook ( address sender, address receiver, uint256 bookID, uint256 escrow ) exists(bookID) public {\n     // Require the sender of the book is the only one who is able to commit the book.\n     require(sender == msg.sender);\n\n     // Require the book exist. If the book does not exist, this function should revert.\n     // Question: Already checked in requestBook?\n     require(_books[msg.sender][bookID].exist);\n\n     // The book should not be in transmission or currently committed to an\n     // transaction.\n     require(!isBookCommitted( sender, receiver, bookID));\n     require(!transmissionStatus( sender, receiver, bookID));\n\n     // Set book escrow value.\n     _bookEscrow[sender][receiver][bookID] = escrow;\n\n     // Set book as being commited\n     _committed[sender][receiver][bookID] = true;\n   }\n\n   /**\n      Sender commits an escrow value for receiver to deposit to the contract\n      as a security deposit should something happen to the book\n\n      sender: entity that currently owns book, eg. librarian\n      receiver: entity requesting book from sender, eg bibliophile\n    */\n   function commitEscrow ( address sender, address receiver, uint256 bookID, uint256 escrow ) public {\n     // require the set book escrow for the book is greater than the minimum escrow\n     // defined when the contract was created.\n     // must require some sort of deposit is set for the book.\n     require(_bookEscrow[sender][receiver][bookID] >= _minEscrow);\n\n     // require the bookEscrow set is equal to the amount passed into this function.\n     // Question: Will we always want these values to be equal? Would greater\n     // than or equal be sufficient?\n     require(_bookEscrow[sender][receiver][bookID] == escrow);\n\n     // require the book has already been commited by the library, but not currently\n     // in transmission\n     require(isBookCommitted( sender, receiver, bookID));\n     require(!transmissionStatus( sender, receiver, bookID));\n\n     // Should force the book to be in the possesion of the library in order to update the\n     // escrow\n\n     // Give the contract the escrow as security deposit\n     _contractEscrow[receiver] = _contractEscrow[receiver].add(escrow);\n\n     // Change status of the receiver as having committed their security deposit\n     _committed[receiver][sender][bookID] = true;\n\n     // Emit signal stating that the escrow for the transmission has been recieved.\n     emit escrowCommitted( receiver, escrow );\n   }\n\n    /** Checkout book\n\t    * trade a book without changing ownership\n\t    * Once both have committed, the currentOwner must ship the book the the\n      * temporary owner\n      *\n\t    * currentOwner: owns bookID\n\t    * tempOwner: temporary owner of bookID\n      */\n    function checkoutBook ( address currentOwner, address tempOwner, uint256 bookID ) exists(bookID) public {\n      // the temporary owner checking out the book should have an escrow being held\n      // by the contract greater than or equal to the book value set by the current\n      // owner\n      require(_contractEscrow[tempOwner] >= _bookEscrow[currentOwner][tempOwner][bookID]);\n\n      // both the current owner and new owner should have committed\n      require(isBookCommitted(currentOwner,tempOwner,bookID));\n      require(isBookCommitted(tempOwner,currentOwner,bookID));\n\n      // both the current owner and new owner should have not set the book in transmission\n      require(!transmissionStatus(currentOwner,tempOwner,bookID));\n      require(!transmissionStatus(tempOwner,currentOwner,bookID));\n\n      // require that the current owner of the book is the minter. The minter\n      // for this application is eqaul to the librarian\n      // Question: Why do we want this? I'm confused as to the importance of minter\n      require(_minter == currentOwner);\n\n      // require the book to exist. If the book does not exist, then the book cannot be\n      // checked out.\n      // Question: Isn't this handled by the modifier exists()?\n      require(_books[currentOwner][bookID].exist);\n\n      // require the book to be available\n      // Question: Redundant?\n      require(isBookAvailable(currentOwner,bookID));\n\n      // Update the owners book\n\n      // Set the book as being in transmission.\n      // Question: One way or two way?\n      _bookTransmission[currentOwner][tempOwner][bookID] = true;\n      //_bookTransmission[tempOwner][currentOwner][bookID] = true;\n\n      // Set the book as not being available as it is now being loaned out.\n      // also set the holder to the tempOwner\n      _books[currentOwner][bookID].availability = false;\n      _books[currentOwner][bookID].holder = tempOwner;\n\n      // Emit that the book is currently in transmission\n      emit bookInTransmission( currentOwner, tempOwner, bookID, true );\n    }\n\n    /** acceptBook\n      * book has been shipped and received by new or tempOwner\n      */\n    function acceptBook( address sender, address receiver, uint256 bookID, string condition ) public exists(bookID) {\n\n      // The person recieving the book should be the only one who should be able\n      // to accept the book.\n      require(msg.sender == receiver);\n\n      // A user should not be able to transferbook to themself\n      require(sender != receiver);\n\n      // Check to make sure the book is in the process of being transfer between the\n      // two users.\n      require(transmissionStatus(sender,receiver,bookID));\n\n      // Check to see if the person current have the book. If the user currently\n      // have the book, they should not be able to accept the book twice\n      require(!doesUserHaveBook(receiver,bookID));\n\n      // Add the book to the user\n      addBookToUser ( receiver, bookID );\n\n      // After books have been succefully accepted, reset mappings to false\n      _committed[sender][receiver][bookID] = false;\n      _committed[receiver][sender][bookID] = false;\n      _bookTransmission[sender][receiver][bookID] = false;\n\n      emit bookReceived( true, condition );\n    }\n    /**\n     * Place book back into the library. This function should commit the book. Once\n     * the book has started the process of being sent, it is up to the library to\n     * accept the book. The person who is currently holding the book should set the\n     * book to being in transmission to signal that the book has been release from\n     * their possession. At this point, the mapping for the book for the library should\n     * be empty and the book should be mapped as being in the possesion of the person\n     * returning the book.\n     */\n    function returnBook( address receiver, address sender, uint256 bookID, string condition ) exists(bookID) public\n    {\n      // The current owner of the book should be the only one able to return the\n      // book.\n      // Question: Is this test necessary?\n      // Answer: Yes. We should not allow someone to send a book if it is not in\n      // in their possession. This requires the sender of the book to be the\n      // message sender.\n      require(sender == msg.sender);\n\n      // The library should not return a book to themself\n      require(sender != receiver);\n\n      // Book should not be committed or in transfer\n      require(!isBookCommitted(sender, receiver, bookID));\n      require(!transmissionStatus(sender, receiver,bookID));\n\n      // Ensure book is not in the library already.\n      require(!isBookAvailable(sender, bookID));\n\n      // Ensure the user who is try to return the book have more than 0 books.\n      require(numberOfAUserHolds(sender) > 0);\n\n      // Check to see if the person current have the book they are trying to return.\n      require(doesUserHaveBook(sender,bookID));\n\n      // Set the book as being in transferance back to the sender\n      _bookTransmission[receiver][sender][bookID] = true;\n\n      // Emit that the book is currently in transmission\n      emit bookInTransmission( receiver, sender, bookID, true );\n    }\n\n    /** Confirm receipt of loaned book, reset book availability, and\n     *  refund escrow.\n     *  originalOwner: address that originally owned the book and loaned it to tempOwner\n     *  tempOwner: the reader that took out the book from the originalOwner\n    */\n    function archiveBook( address originalOwner, address tempOwner, uint256 bookID, string condition ) public exists(bookID) {\n\n       // Only the library should be able to place the book back into the archive\n       require(msg.sender == _minter && msg.sender == originalOwner);\n\n       // check transmission status and book availability are in expected positions\n       require(!isBookAvailable(originalOwner, bookID));\n       require(transmissionStatus(originalOwner, tempOwner, bookID));\n\n       // Since the book have been archived back to the library, we can say the\n       // the book can be removed from the users account.\n       removeBookFromUser ( tempOwner, bookID  );\n\n\t     // reset transmission status\n\t     _bookTransmission[tempOwner][originalOwner][bookID] = false;\n\n\t     // reset book availability and the holder of the book\n\t     _books[originalOwner][bookID].availability = true;\n\t     _books[originalOwner][bookID].holder = originalOwner;\n\n\t      // The book has successfully been returned to the rightful owner.\n\t      // Refund the escrow to the temporary owner (here the sender)\n\t      refundEscrow( originalOwner, tempOwner, bookID );\n    }\n\n    /** Return Escrow\n     * After the book has been returned to the library or the trade is complete,\n     * refund the escrow amount to the requester\n     */\n    function refundEscrow( address originalOwner, address tempOwner, uint256 bookID ) private exists(bookID) {\n\n\t     // require\n\n\t      // decrease the contracts escrow for the tempOwner\n\t      uint256 refund_escrow = _bookEscrow[originalOwner][tempOwner][bookID];\n\t      _contractEscrow[tempOwner] = _contractEscrow[tempOwner].sub(_bookEscrow[originalOwner][tempOwner][bookID]);\n\n\t      // send the money back to the tempOwner\n\t      // transfer()?\n\n    }\n\n    /**\n      * Trade Book. Trade book will allow one user to trade books with another\n      * user without resubmitting the book to the library. This function should\n      * initiate the transaction.\n      */\n    function tradeBook ( address owner1, uint256 bookID1, address owner2, uint256 bookID2) exists(bookID1) exists(bookID2) public\n    {\n      // Make sure books are not currntly in the process of being transfered to\n      // anyone else before making trade.\n      require(_committed[owner1][owner2][bookID1] == false);\n      require(_bookTransmission[owner1][owner2][bookID1] == false);\n      require(_committed[owner2][owner1][bookID2] == false);\n      require(_bookTransmission[owner2][owner1][bookID2] == false);\n\n      // Set books as being prompted for transmission\n      _committed[owner1][owner2][bookID1] = true;\n      _committed[owner2][owner1][bookID2] = true;\n    }\n\n  /**\n    * If a book is lost in transmission or by a user, this function should be called\n    * to clear out any transaction information for the given book. Once this\n    * information is cleared, the book is then burned and removed from the\n    * library blockchain.\n    */\n    function lostBook ( address owner, uint256 bookID ) exists(bookID) public\n    {\n       // Require the book exist in the first place before it is reported lost\n       require( _books[owner][bookID].exist );\n\n      // Cannot lose the same book twice, so will not allow the book to\n      // be re added to the lost book list.\n       require( !_lostBooksList[bookID] );\n\n       // Set the book as lost\n       _lostBooksList[bookID] = true;\n\n       // Remove the book from circulation.\n       removeBook( owner, bookID, false );\n\n       // Broadcast that the book has been lost and added to the lost book queue\n       emit bookIsLost(true, bookID);\n    }\n\n    /*\n    function updateBooksList( address originalOwner, address newOwner, uint256 bookID, bool permanence )\n    public exists(bookID) returns(bool)\n    {\n\t// get book of the original Owner\n\tmemory book = _books[originalOwner][bookID];\n\tuint256 bookPointer = _booksList[newOwner].push(bookID) - 1;\n\tbook.bookPointer = bookPointer;\n\t_books[newOwner][bookID] = book;\n\n\t// permanence means to remove the book from\n\tremoveBook(originalOwner, bookID, permanence, false);\n\t}*/\n\n\n  /**\n   * Remove book from the library\n   * @param bookID The unique ID of the book in the library.\n   */\n    function removeBook( address owner, uint256 bookID, bool burn )\n   public exists(bookID) returns(bool)\n   {\n     // The only one who should be able to remove a book is the library or the\n     // owner of the book\n     require( msg.sender == owner || msg.sender == _minter);\n     require(_books[owner][bookID].exist);\n\n     // remove book from book list by swapping with last element in list\n     // and update swapped book's pointer in book mapping\n     uint256 rowToDelete = _books[owner][bookID].bookPointer;\n     uint256 keyToMove = _booksList[owner][_booksList[owner].length-1];\n\n\n     _booksList[owner][rowToDelete] = keyToMove;\n     _books[owner][keyToMove].bookPointer = rowToDelete;\n     _booksList[owner].length--;\n\n     // up to here the function satisfies if the book is put in the lost\n     // state. if burn == true, then remove it from circulation\n\n     // Question: If the book is found, how will it be added back into circulation?\n     // I originally thought we were going to just burn the book if it is lost, then\n     // just re add the book with new book to make this process less complicated.\n     // If a book is lost and not burned, we would have to have a function to check\n     // if the token still exist, then up date the books list mappings without adding\n     // an additional token.\n     if( burn ) {\n\t      delete _books[owner][bookID];\n\t      _burn(owner, bookID);\n     }\n\n     return true;\n   }\n\n}\n",
  "sourcePath": "/gpfs/main/home/mrmcavoy/course/cs1951l/LedgerLibrary/contracts/BookLedger.sol",
  "compiler": {
    "name": "solc",
    "version": "0.4.24+commit.e67f0147.Emscripten.clang"
  },
  "schemaVersion": "2.0.1",
  "updatedAt": "2019-04-22T19:36:45.549Z"
}