{
  "contractName": "BookLedger",
  "abi": [
    {
      "constant": true,
      "inputs": [
        {
          "name": "tokenId",
          "type": "uint256"
        }
      ],
      "name": "getApproved",
      "outputs": [
        {
          "name": "",
          "type": "address"
        }
      ],
      "payable": false,
      "stateMutability": "view",
      "type": "function"
    },
    {
      "constant": false,
      "inputs": [
        {
          "name": "to",
          "type": "address"
        },
        {
          "name": "tokenId",
          "type": "uint256"
        }
      ],
      "name": "approve",
      "outputs": [],
      "payable": false,
      "stateMutability": "nonpayable",
      "type": "function"
    },
    {
      "constant": true,
      "inputs": [],
      "name": "_delta",
      "outputs": [
        {
          "name": "",
          "type": "uint256"
        }
      ],
      "payable": false,
      "stateMutability": "view",
      "type": "function"
    },
    {
      "constant": false,
      "inputs": [
        {
          "name": "from",
          "type": "address"
        },
        {
          "name": "to",
          "type": "address"
        },
        {
          "name": "tokenId",
          "type": "uint256"
        }
      ],
      "name": "transferFrom",
      "outputs": [],
      "payable": false,
      "stateMutability": "nonpayable",
      "type": "function"
    },
    {
      "constant": true,
      "inputs": [
        {
          "name": "",
          "type": "address"
        },
        {
          "name": "",
          "type": "address"
        },
        {
          "name": "",
          "type": "uint256"
        }
      ],
      "name": "_bookEscrow",
      "outputs": [
        {
          "name": "",
          "type": "uint256"
        }
      ],
      "payable": false,
      "stateMutability": "view",
      "type": "function"
    },
    {
      "constant": true,
      "inputs": [],
      "name": "_maxEscrow",
      "outputs": [
        {
          "name": "",
          "type": "uint256"
        }
      ],
      "payable": false,
      "stateMutability": "view",
      "type": "function"
    },
    {
      "constant": true,
      "inputs": [],
      "name": "_minter",
      "outputs": [
        {
          "name": "",
          "type": "address"
        }
      ],
      "payable": false,
      "stateMutability": "view",
      "type": "function"
    },
    {
      "constant": true,
      "inputs": [
        {
          "name": "",
          "type": "uint256"
        }
      ],
      "name": "_entity",
      "outputs": [
        {
          "name": "",
          "type": "address"
        }
      ],
      "payable": false,
      "stateMutability": "view",
      "type": "function"
    },
    {
      "constant": true,
      "inputs": [
        {
          "name": "tokenId",
          "type": "uint256"
        }
      ],
      "name": "ownerOf",
      "outputs": [
        {
          "name": "",
          "type": "address"
        }
      ],
      "payable": false,
      "stateMutability": "view",
      "type": "function"
    },
    {
      "constant": true,
      "inputs": [
        {
          "name": "owner",
          "type": "address"
        }
      ],
      "name": "balanceOf",
      "outputs": [
        {
          "name": "",
          "type": "uint256"
        }
      ],
      "payable": false,
      "stateMutability": "view",
      "type": "function"
    },
    {
      "constant": true,
      "inputs": [],
      "name": "contractName",
      "outputs": [
        {
          "name": "",
          "type": "string"
        }
      ],
      "payable": false,
      "stateMutability": "view",
      "type": "function"
    },
    {
      "constant": true,
      "inputs": [],
      "name": "_minEscrow",
      "outputs": [
        {
          "name": "",
          "type": "uint256"
        }
      ],
      "payable": false,
      "stateMutability": "view",
      "type": "function"
    },
    {
      "constant": false,
      "inputs": [
        {
          "name": "to",
          "type": "address"
        },
        {
          "name": "approved",
          "type": "bool"
        }
      ],
      "name": "setApprovalForAll",
      "outputs": [],
      "payable": false,
      "stateMutability": "nonpayable",
      "type": "function"
    },
    {
      "constant": true,
      "inputs": [],
      "name": "_maxBookCount",
      "outputs": [
        {
          "name": "",
          "type": "uint256"
        }
      ],
      "payable": false,
      "stateMutability": "view",
      "type": "function"
    },
    {
      "constant": true,
      "inputs": [
        {
          "name": "owner",
          "type": "address"
        },
        {
          "name": "operator",
          "type": "address"
        }
      ],
      "name": "isApprovedForAll",
      "outputs": [
        {
          "name": "",
          "type": "bool"
        }
      ],
      "payable": false,
      "stateMutability": "view",
      "type": "function"
    },
    {
      "inputs": [
        {
          "name": "minter",
          "type": "address"
        },
        {
          "name": "minEscrow",
          "type": "uint256"
        }
      ],
      "payable": false,
      "stateMutability": "nonpayable",
      "type": "constructor"
    },
    {
      "anonymous": false,
      "inputs": [
        {
          "indexed": false,
          "name": "publisher",
          "type": "string"
        },
        {
          "indexed": false,
          "name": "author",
          "type": "string"
        },
        {
          "indexed": false,
          "name": "name",
          "type": "string"
        }
      ],
      "name": "bookAdded",
      "type": "event"
    },
    {
      "anonymous": false,
      "inputs": [
        {
          "indexed": false,
          "name": "publisher",
          "type": "string"
        },
        {
          "indexed": false,
          "name": "author",
          "type": "string"
        },
        {
          "indexed": false,
          "name": "name",
          "type": "string"
        }
      ],
      "name": "bookRemoved",
      "type": "event"
    },
    {
      "anonymous": false,
      "inputs": [
        {
          "indexed": false,
          "name": "newOwner",
          "type": "address"
        },
        {
          "indexed": false,
          "name": "escrowAmount",
          "type": "uint256"
        }
      ],
      "name": "escrowCommitted",
      "type": "event"
    },
    {
      "anonymous": false,
      "inputs": [
        {
          "indexed": false,
          "name": "currentOwner",
          "type": "address"
        },
        {
          "indexed": false,
          "name": "tempOwner",
          "type": "address"
        },
        {
          "indexed": false,
          "name": "bookID",
          "type": "uint256"
        },
        {
          "indexed": false,
          "name": "InTransmission",
          "type": "bool"
        }
      ],
      "name": "bookInTransmission",
      "type": "event"
    },
    {
      "anonymous": false,
      "inputs": [
        {
          "indexed": false,
          "name": "transmissionComplete",
          "type": "bool"
        },
        {
          "indexed": false,
          "name": "bookCondition",
          "type": "string"
        }
      ],
      "name": "bookReceived",
      "type": "event"
    },
    {
      "anonymous": false,
      "inputs": [
        {
          "indexed": false,
          "name": "bookLost",
          "type": "bool"
        },
        {
          "indexed": false,
          "name": "bookID",
          "type": "uint256"
        }
      ],
      "name": "bookIsLost",
      "type": "event"
    },
    {
      "anonymous": false,
      "inputs": [
        {
          "indexed": false,
          "name": "recipient",
          "type": "address"
        },
        {
          "indexed": false,
          "name": "amount",
          "type": "uint256"
        }
      ],
      "name": "escrowRefunded",
      "type": "event"
    },
    {
      "anonymous": false,
      "inputs": [
        {
          "indexed": false,
          "name": "plaintiff",
          "type": "address"
        },
        {
          "indexed": false,
          "name": "defendant",
          "type": "address"
        },
        {
          "indexed": false,
          "name": "startTimer",
          "type": "uint256"
        }
      ],
      "name": "startTimerForCounter",
      "type": "event"
    },
    {
      "anonymous": false,
      "inputs": [
        {
          "indexed": false,
          "name": "basically_now",
          "type": "uint256"
        },
        {
          "indexed": false,
          "name": "delta_now",
          "type": "uint256"
        }
      ],
      "name": "deltaTimeNotElapsed",
      "type": "event"
    },
    {
      "anonymous": false,
      "inputs": [
        {
          "indexed": true,
          "name": "from",
          "type": "address"
        },
        {
          "indexed": true,
          "name": "to",
          "type": "address"
        },
        {
          "indexed": true,
          "name": "tokenId",
          "type": "uint256"
        }
      ],
      "name": "Transfer",
      "type": "event"
    },
    {
      "anonymous": false,
      "inputs": [
        {
          "indexed": true,
          "name": "owner",
          "type": "address"
        },
        {
          "indexed": true,
          "name": "approved",
          "type": "address"
        },
        {
          "indexed": true,
          "name": "tokenId",
          "type": "uint256"
        }
      ],
      "name": "Approval",
      "type": "event"
    },
    {
      "anonymous": false,
      "inputs": [
        {
          "indexed": true,
          "name": "owner",
          "type": "address"
        },
        {
          "indexed": true,
          "name": "operator",
          "type": "address"
        },
        {
          "indexed": false,
          "name": "approved",
          "type": "bool"
        }
      ],
      "name": "ApprovalForAll",
      "type": "event"
    },
    {
      "constant": false,
      "inputs": [
        {
          "name": "owner",
          "type": "address"
        },
        {
          "name": "bookID",
          "type": "uint256"
        },
        {
          "name": "genre",
          "type": "uint256"
        },
        {
          "name": "country",
          "type": "string"
        },
        {
          "name": "publisher",
          "type": "string"
        },
        {
          "name": "author",
          "type": "string"
        },
        {
          "name": "name",
          "type": "string"
        }
      ],
      "name": "newBook",
      "outputs": [
        {
          "name": "",
          "type": "uint256"
        }
      ],
      "payable": false,
      "stateMutability": "nonpayable",
      "type": "function"
    },
    {
      "constant": true,
      "inputs": [
        {
          "name": "owner",
          "type": "address"
        },
        {
          "name": "bookID",
          "type": "uint256"
        }
      ],
      "name": "originDateOfBook",
      "outputs": [
        {
          "name": "",
          "type": "uint256"
        }
      ],
      "payable": false,
      "stateMutability": "view",
      "type": "function"
    },
    {
      "constant": true,
      "inputs": [
        {
          "name": "owner",
          "type": "address"
        }
      ],
      "name": "numberOfBookInLibrary",
      "outputs": [
        {
          "name": "",
          "type": "uint256"
        }
      ],
      "payable": false,
      "stateMutability": "view",
      "type": "function"
    },
    {
      "constant": true,
      "inputs": [
        {
          "name": "owner",
          "type": "address"
        }
      ],
      "name": "numberOfAUserHolds",
      "outputs": [
        {
          "name": "",
          "type": "uint256"
        }
      ],
      "payable": false,
      "stateMutability": "view",
      "type": "function"
    },
    {
      "constant": true,
      "inputs": [
        {
          "name": "owner",
          "type": "address"
        },
        {
          "name": "bookID",
          "type": "uint256"
        }
      ],
      "name": "doesUserHaveBook",
      "outputs": [
        {
          "name": "",
          "type": "bool"
        }
      ],
      "payable": false,
      "stateMutability": "view",
      "type": "function"
    },
    {
      "constant": false,
      "inputs": [
        {
          "name": "owner",
          "type": "address"
        },
        {
          "name": "bookID",
          "type": "uint256"
        }
      ],
      "name": "addBookToUser",
      "outputs": [],
      "payable": false,
      "stateMutability": "nonpayable",
      "type": "function"
    },
    {
      "constant": false,
      "inputs": [
        {
          "name": "owner",
          "type": "address"
        },
        {
          "name": "bookID",
          "type": "uint256"
        }
      ],
      "name": "removeBookFromUser",
      "outputs": [],
      "payable": false,
      "stateMutability": "nonpayable",
      "type": "function"
    },
    {
      "constant": true,
      "inputs": [
        {
          "name": "owner",
          "type": "address"
        },
        {
          "name": "bookID",
          "type": "uint256"
        }
      ],
      "name": "isBookAvailable",
      "outputs": [
        {
          "name": "",
          "type": "bool"
        }
      ],
      "payable": false,
      "stateMutability": "view",
      "type": "function"
    },
    {
      "constant": true,
      "inputs": [
        {
          "name": "sender",
          "type": "address"
        },
        {
          "name": "receiver",
          "type": "address"
        },
        {
          "name": "bookID",
          "type": "uint256"
        }
      ],
      "name": "isBookCommitted",
      "outputs": [
        {
          "name": "",
          "type": "bool"
        }
      ],
      "payable": false,
      "stateMutability": "view",
      "type": "function"
    },
    {
      "constant": true,
      "inputs": [
        {
          "name": "owner",
          "type": "address"
        },
        {
          "name": "requester",
          "type": "address"
        },
        {
          "name": "bookID",
          "type": "uint256"
        }
      ],
      "name": "transmissionStatus",
      "outputs": [
        {
          "name": "",
          "type": "bool"
        }
      ],
      "payable": false,
      "stateMutability": "view",
      "type": "function"
    },
    {
      "constant": true,
      "inputs": [
        {
          "name": "requester",
          "type": "address"
        }
      ],
      "name": "accountEscrow",
      "outputs": [
        {
          "name": "",
          "type": "uint256"
        }
      ],
      "payable": false,
      "stateMutability": "view",
      "type": "function"
    },
    {
      "constant": true,
      "inputs": [
        {
          "name": "owner",
          "type": "address"
        },
        {
          "name": "requester",
          "type": "address"
        },
        {
          "name": "bookID",
          "type": "uint256"
        }
      ],
      "name": "bookEscrow",
      "outputs": [
        {
          "name": "",
          "type": "uint256"
        }
      ],
      "payable": false,
      "stateMutability": "view",
      "type": "function"
    },
    {
      "constant": false,
      "inputs": [
        {
          "name": "owner",
          "type": "address"
        },
        {
          "name": "bookID",
          "type": "uint256"
        },
        {
          "name": "trade",
          "type": "bool"
        }
      ],
      "name": "requestBook",
      "outputs": [],
      "payable": false,
      "stateMutability": "nonpayable",
      "type": "function"
    },
    {
      "constant": false,
      "inputs": [
        {
          "name": "sender",
          "type": "address"
        },
        {
          "name": "receiver",
          "type": "address"
        },
        {
          "name": "bookID",
          "type": "uint256"
        },
        {
          "name": "escrow",
          "type": "uint256"
        }
      ],
      "name": "commitBook",
      "outputs": [],
      "payable": false,
      "stateMutability": "nonpayable",
      "type": "function"
    },
    {
      "constant": false,
      "inputs": [
        {
          "name": "sender",
          "type": "address"
        },
        {
          "name": "receiver",
          "type": "address"
        },
        {
          "name": "bookID",
          "type": "uint256"
        }
      ],
      "name": "commitEscrow",
      "outputs": [],
      "payable": true,
      "stateMutability": "payable",
      "type": "function"
    },
    {
      "constant": false,
      "inputs": [
        {
          "name": "currentOwner",
          "type": "address"
        },
        {
          "name": "tempOwner",
          "type": "address"
        },
        {
          "name": "bookID",
          "type": "uint256"
        }
      ],
      "name": "sendBook",
      "outputs": [],
      "payable": false,
      "stateMutability": "nonpayable",
      "type": "function"
    },
    {
      "constant": false,
      "inputs": [
        {
          "name": "sender",
          "type": "address"
        },
        {
          "name": "receiver",
          "type": "address"
        },
        {
          "name": "bookID",
          "type": "uint256"
        },
        {
          "name": "condition",
          "type": "string"
        }
      ],
      "name": "acceptBook",
      "outputs": [],
      "payable": false,
      "stateMutability": "nonpayable",
      "type": "function"
    },
    {
      "constant": false,
      "inputs": [
        {
          "name": "originalOwner",
          "type": "address"
        },
        {
          "name": "newOwner",
          "type": "address"
        },
        {
          "name": "bookID",
          "type": "uint256"
        },
        {
          "name": "condition",
          "type": "string"
        }
      ],
      "name": "returnBook",
      "outputs": [],
      "payable": false,
      "stateMutability": "nonpayable",
      "type": "function"
    },
    {
      "constant": false,
      "inputs": [
        {
          "name": "originalOwner",
          "type": "address"
        },
        {
          "name": "newOwner",
          "type": "address"
        },
        {
          "name": "bookID",
          "type": "uint256"
        },
        {
          "name": "condition",
          "type": "string"
        }
      ],
      "name": "archiveBook",
      "outputs": [],
      "payable": false,
      "stateMutability": "nonpayable",
      "type": "function"
    },
    {
      "constant": false,
      "inputs": [
        {
          "name": "sender",
          "type": "address"
        },
        {
          "name": "receiver",
          "type": "address"
        },
        {
          "name": "bookID",
          "type": "uint256"
        }
      ],
      "name": "refundEscrow",
      "outputs": [],
      "payable": true,
      "stateMutability": "payable",
      "type": "function"
    },
    {
      "constant": false,
      "inputs": [
        {
          "name": "plaintiff",
          "type": "address"
        },
        {
          "name": "defendant",
          "type": "address"
        },
        {
          "name": "bookID",
          "type": "uint256"
        }
      ],
      "name": "rejectBook",
      "outputs": [],
      "payable": true,
      "stateMutability": "payable",
      "type": "function"
    },
    {
      "constant": false,
      "inputs": [
        {
          "name": "owner",
          "type": "address"
        },
        {
          "name": "bookID",
          "type": "uint256"
        }
      ],
      "name": "lostBook",
      "outputs": [],
      "payable": false,
      "stateMutability": "nonpayable",
      "type": "function"
    },
    {
      "constant": false,
      "inputs": [
        {
          "name": "owner",
          "type": "address"
        },
        {
          "name": "bookID",
          "type": "uint256"
        },
        {
          "name": "burn",
          "type": "bool"
        }
      ],
      "name": "removeBook",
      "outputs": [
        {
          "name": "",
          "type": "bool"
        }
      ],
      "payable": false,
      "stateMutability": "nonpayable",
      "type": "function"
    }
  ],
  "bytecode": "0x60806040523480156200001157600080fd5b5060405160408062006127833981018060405281019080805190602001909291908051906020019092919050505081601160006101000a81548173ffffffffffffffffffffffffffffffffffffffff021916908373ffffffffffffffffffffffffffffffffffffffff16021790555080601281905550620000ab600382620000c16401000000000262005faa179091906401000000009004565b6013819055506003601481905550505062000103565b6000806000841415620000d85760009150620000fc565b8284029050828482811515620000ea57fe5b04141515620000f857600080fd5b8091505b5092915050565b61601480620001136000396000f3006080604052600436106101d8576000357c0100000000000000000000000000000000000000000000000000000000900463ffffffff168063081812fc146101dd578063095ea7b31461024a5780631ee4cac8146102975780631fce3740146102c257806323b872dd1461034757806324e29d35146103b457806326fa524f14610414578063285750ca1461046b5780632ac08a08146104ec5780633a4eb8e61461059f5780633fd4c90e146105ff578063455338071461062a5780634b4f7335146106a1578063578ec33f1461072657806358960d5b1461077d57806360310fa0146108305780636352211e1461089d57806370a082311461090a57806375d0c0dc146109615780637e6165b8146109f15780638551576d14610a1c57806385630a5d14610a9d5780638a2c6d6214610b5057806393cc65f414610ba757806394ca55f614610d2a5780639a03675c14610d775780639c5f754f14610dd0578063a22cb46514610e1d578063a72f74dc14610e6c578063ad3bd28314610e97578063b8eba42b14610ef8578063c896406514610f65578063d1cf4a2f14610fbc578063d6bff86514611021578063d9ae0eb614611092578063e68e401c146110df578063e985e9c51461113f578063efe9329c146111ba575b600080fd5b3480156101e957600080fd5b506102086004803603810190808035906020019092919050505061121f565b604051808273ffffffffffffffffffffffffffffffffffffffff1673ffffffffffffffffffffffffffffffffffffffff16815260200191505060405180910390f35b34801561025657600080fd5b50610295600480360381019080803573ffffffffffffffffffffffffffffffffffffffff1690602001909291908035906020019092919050505061125c565b005b3480156102a357600080fd5b506102ac6113a1565b6040518082815260200191505060405180910390f35b3480156102ce57600080fd5b5061032d600480360381019080803573ffffffffffffffffffffffffffffffffffffffff169060200190929190803573ffffffffffffffffffffffffffffffffffffffff169060200190929190803590602001909291905050506113a7565b604051808215151515815260200191505060405180910390f35b34801561035357600080fd5b506103b2600480360381019080803573ffffffffffffffffffffffffffffffffffffffff169060200190929190803573ffffffffffffffffffffffffffffffffffffffff169060200190929190803590602001909291905050506114f2565b005b610412600480360381019080803573ffffffffffffffffffffffffffffffffffffffff169060200190929190803573ffffffffffffffffffffffffffffffffffffffff169060200190929190803590602001909291905050506117f0565b005b34801561042057600080fd5b50610455600480360381019080803573ffffffffffffffffffffffffffffffffffffffff169060200190929190505050611cf3565b6040518082815260200191505060405180910390f35b34801561047757600080fd5b506104d6600480360381019080803573ffffffffffffffffffffffffffffffffffffffff169060200190929190803573ffffffffffffffffffffffffffffffffffffffff16906020019092919080359060200190929190505050611d99565b6040518082815260200191505060405180910390f35b3480156104f857600080fd5b5061059d600480360381019080803573ffffffffffffffffffffffffffffffffffffffff169060200190929190803573ffffffffffffffffffffffffffffffffffffffff16906020019092919080359060200190929190803590602001908201803590602001908080601f0160208091040260200160405190810160405280939291908181526020018383808284378201915050505050509192919290505050611dcb565b005b6105fd600480360381019080803573ffffffffffffffffffffffffffffffffffffffff169060200190929190803573ffffffffffffffffffffffffffffffffffffffff16906020019092919080359060200190929190505050612826565b005b34801561060b57600080fd5b50610614612bbe565b6040518082815260200191505060405180910390f35b34801561063657600080fd5b5061069f600480360381019080803573ffffffffffffffffffffffffffffffffffffffff169060200190929190803573ffffffffffffffffffffffffffffffffffffffff1690602001909291908035906020019092919080359060200190929190505050612bc4565b005b3480156106ad57600080fd5b5061070c600480360381019080803573ffffffffffffffffffffffffffffffffffffffff169060200190929190803573ffffffffffffffffffffffffffffffffffffffff16906020019092919080359060200190929190505050612e7b565b604051808215151515815260200191505060405180910390f35b34801561073257600080fd5b5061073b612f21565b604051808273ffffffffffffffffffffffffffffffffffffffff1673ffffffffffffffffffffffffffffffffffffffff16815260200191505060405180910390f35b34801561078957600080fd5b5061082e600480360381019080803573ffffffffffffffffffffffffffffffffffffffff169060200190929190803573ffffffffffffffffffffffffffffffffffffffff16906020019092919080359060200190929190803590602001908201803590602001908080601f0160208091040260200160405190810160405280939291908181526020018383808284378201915050505050509192919290505050612f47565b005b34801561083c57600080fd5b5061085b600480360381019080803590602001909291905050506133cb565b604051808273ffffffffffffffffffffffffffffffffffffffff1673ffffffffffffffffffffffffffffffffffffffff16815260200191505060405180910390f35b3480156108a957600080fd5b506108c860048036038101908080359060200190929190505050613409565b604051808273ffffffffffffffffffffffffffffffffffffffff1673ffffffffffffffffffffffffffffffffffffffff16815260200191505060405180910390f35b34801561091657600080fd5b5061094b600480360381019080803573ffffffffffffffffffffffffffffffffffffffff169060200190929190505050613445565b6040518082815260200191505060405180910390f35b34801561096d57600080fd5b506109766134c9565b6040518080602001828103825283818151815260200191508051906020019080838360005b838110156109b657808201518184015260208101905061099b565b50505050905090810190601f1680156109e35780820380516001836020036101000a031916815260200191505b509250505060405180910390f35b3480156109fd57600080fd5b50610a06613502565b6040518082815260200191505060405180910390f35b348015610a2857600080fd5b50610a87600480360381019080803573ffffffffffffffffffffffffffffffffffffffff169060200190929190803573ffffffffffffffffffffffffffffffffffffffff16906020019092919080359060200190929190505050613508565b6040518082815260200191505060405180910390f35b348015610aa957600080fd5b50610b4e600480360381019080803573ffffffffffffffffffffffffffffffffffffffff169060200190929190803573ffffffffffffffffffffffffffffffffffffffff16906020019092919080359060200190929190803590602001908201803590602001908080601f01602080910402602001604051908101604052809392919081815260200183838082843782019150505050505091929192905050506135a1565b005b348015610b5c57600080fd5b50610b91600480360381019080803573ffffffffffffffffffffffffffffffffffffffff169060200190929190505050613840565b6040518082815260200191505060405180910390f35b348015610bb357600080fd5b50610d14600480360381019080803573ffffffffffffffffffffffffffffffffffffffff1690602001909291908035906020019092919080359060200190929190803590602001908201803590602001908080601f0160208091040260200160405190810160405280939291908181526020018383808284378201915050505050509192919290803590602001908201803590602001908080601f0160208091040260200160405190810160405280939291908181526020018383808284378201915050505050509192919290803590602001908201803590602001908080601f0160208091040260200160405190810160405280939291908181526020018383808284378201915050505050509192919290803590602001908201803590602001908080601f0160208091040260200160405190810160405280939291908181526020018383808284378201915050505050509192919290505050613889565b6040518082815260200191505060405180910390f35b348015610d3657600080fd5b50610d75600480360381019080803573ffffffffffffffffffffffffffffffffffffffff16906020019092919080359060200190929190505050613f35565b005b348015610d8357600080fd5b50610dce600480360381019080803573ffffffffffffffffffffffffffffffffffffffff1690602001909291908035906020019092919080351515906020019092919050505061404e565b005b348015610ddc57600080fd5b50610e1b600480360381019080803573ffffffffffffffffffffffffffffffffffffffff16906020019092919080359060200190929190505050614296565b005b348015610e2957600080fd5b50610e6a600480360381019080803573ffffffffffffffffffffffffffffffffffffffff16906020019092919080351515906020019092919050505061435c565b005b348015610e7857600080fd5b50610e81614498565b6040518082815260200191505060405180910390f35b348015610ea357600080fd5b50610ee2600480360381019080803573ffffffffffffffffffffffffffffffffffffffff1690602001909291908035906020019092919050505061449e565b6040518082815260200191505060405180910390f35b348015610f0457600080fd5b50610f63600480360381019080803573ffffffffffffffffffffffffffffffffffffffff169060200190929190803573ffffffffffffffffffffffffffffffffffffffff169060200190929190803590602001909291905050506145a1565b005b348015610f7157600080fd5b50610fa6600480360381019080803573ffffffffffffffffffffffffffffffffffffffff169060200190929190505050614a51565b6040518082815260200191505060405180910390f35b348015610fc857600080fd5b50611007600480360381019080803573ffffffffffffffffffffffffffffffffffffffff16906020019092919080359060200190929190505050614af9565b604051808215151515815260200191505060405180910390f35b34801561102d57600080fd5b50611078600480360381019080803573ffffffffffffffffffffffffffffffffffffffff16906020019092919080359060200190929190803515159060200190929190505050614bbe565b604051808215151515815260200191505060405180910390f35b34801561109e57600080fd5b506110dd600480360381019080803573ffffffffffffffffffffffffffffffffffffffff1690602001909291908035906020019092919050505061510c565b005b61113d600480360381019080803573ffffffffffffffffffffffffffffffffffffffff169060200190929190803573ffffffffffffffffffffffffffffffffffffffff16906020019092919080359060200190929190505050615345565b005b34801561114b57600080fd5b506111a0600480360381019080803573ffffffffffffffffffffffffffffffffffffffff169060200190929190803573ffffffffffffffffffffffffffffffffffffffff169060200190929190505050615787565b604051808215151515815260200191505060405180910390f35b3480156111c657600080fd5b50611205600480360381019080803573ffffffffffffffffffffffffffffffffffffffff1690602001909291908035906020019092919050505061581b565b604051808215151515815260200191505060405180910390f35b60006001600083815260200190815260200160002060009054906101000a900473ffffffffffffffffffffffffffffffffffffffff169050919050565b600061126782613409565b90508073ffffffffffffffffffffffffffffffffffffffff168373ffffffffffffffffffffffffffffffffffffffff16141515156112a457600080fd5b8073ffffffffffffffffffffffffffffffffffffffff163373ffffffffffffffffffffffffffffffffffffffff1614806112e457506112e38133615787565b5b15156112ef57600080fd5b826001600084815260200190815260200160002060006101000a81548173ffffffffffffffffffffffffffffffffffffffff021916908373ffffffffffffffffffffffffffffffffffffffff160217905550818373ffffffffffffffffffffffffffffffffffffffff168273ffffffffffffffffffffffffffffffffffffffff167f8c5be1e5ebec7d5bd14f71427d1e84f3dd0314c0f7b2291e5b200ac8c7c3b92560405160405180910390a4505050565b60145481565b6000816113b38161592b565b151561144d576040517f08c379a000000000000000000000000000000000000000000000000000000000815260040180806020018281038252603e8152602001807f45524337323120746f6b656e2065786973747320666f7220626f6f6b2077697481526020017f682073706563696669656420494420646f6573206e6f742065786973742e000081525060400191505060405180910390fd5b600b60008673ffffffffffffffffffffffffffffffffffffffff1673ffffffffffffffffffffffffffffffffffffffff16815260200190815260200160002060008573ffffffffffffffffffffffffffffffffffffffff1673ffffffffffffffffffffffffffffffffffffffff168152602001908152602001600020600084815260200190815260200160002060009054906101000a900460ff169150509392505050565b8273ffffffffffffffffffffffffffffffffffffffff1661151282613409565b73ffffffffffffffffffffffffffffffffffffffff1614151561153457600080fd5b600073ffffffffffffffffffffffffffffffffffffffff168273ffffffffffffffffffffffffffffffffffffffff161415151561157057600080fd5b61157981613409565b73ffffffffffffffffffffffffffffffffffffffff163373ffffffffffffffffffffffffffffffffffffffff1614806115e557503373ffffffffffffffffffffffffffffffffffffffff166115cd8261121f565b73ffffffffffffffffffffffffffffffffffffffff16145b806115fe57506115fd6115f782613409565b33615787565b5b151561160957600080fd5b6116138382615996565b6116666001600260008673ffffffffffffffffffffffffffffffffffffffff1673ffffffffffffffffffffffffffffffffffffffff16815260200190815260200160002054615a9990919063ffffffff16565b600260008573ffffffffffffffffffffffffffffffffffffffff1673ffffffffffffffffffffffffffffffffffffffff168152602001908152602001600020819055506116fc6001600260008573ffffffffffffffffffffffffffffffffffffffff1673ffffffffffffffffffffffffffffffffffffffff16815260200190815260200160002054615aba90919063ffffffff16565b600260008473ffffffffffffffffffffffffffffffffffffffff1673ffffffffffffffffffffffffffffffffffffffff168152602001908152602001600020819055508160008083815260200190815260200160002060006101000a81548173ffffffffffffffffffffffffffffffffffffffff021916908373ffffffffffffffffffffffffffffffffffffffff160217905550808273ffffffffffffffffffffffffffffffffffffffff168473ffffffffffffffffffffffffffffffffffffffff167fddf252ad1be2c89b69c2b068fc378daa952ba7f163c4a11628f55a4df523b3ef60405160405180910390a4505050565b6000816117fc8161592b565b1515611896576040517f08c379a000000000000000000000000000000000000000000000000000000000815260040180806020018281038252603e8152602001807f45524337323120746f6b656e2065786973747320666f7220626f6f6b2077697481526020017f682073706563696669656420494420646f6573206e6f742065786973742e000081525060400191505060405180910390fd5b60001515600f60008773ffffffffffffffffffffffffffffffffffffffff1673ffffffffffffffffffffffffffffffffffffffff16815260200190815260200160002060008673ffffffffffffffffffffffffffffffffffffffff1673ffffffffffffffffffffffffffffffffffffffff168152602001908152602001600020600085815260200190815260200160002060009054906101000a900460ff1615151415611a78576014544201601060008773ffffffffffffffffffffffffffffffffffffffff1673ffffffffffffffffffffffffffffffffffffffff16815260200190815260200160002060008673ffffffffffffffffffffffffffffffffffffffff1673ffffffffffffffffffffffffffffffffffffffff168152602001908152602001600020600085815260200190815260200160002050506001600f60008773ffffffffffffffffffffffffffffffffffffffff1673ffffffffffffffffffffffffffffffffffffffff16815260200190815260200160002060008673ffffffffffffffffffffffffffffffffffffffff1673ffffffffffffffffffffffffffffffffffffffff168152602001908152602001600020600085815260200190815260200160002060006101000a81548160ff0219169083151502179055505b7f6f31d73fd43e5bc3fd94c6751111c2998280e3ae57a10b74eefb3a36e214cc098585601060008973ffffffffffffffffffffffffffffffffffffffff1673ffffffffffffffffffffffffffffffffffffffff16815260200190815260200160002060008873ffffffffffffffffffffffffffffffffffffffff1673ffffffffffffffffffffffffffffffffffffffff168152602001908152602001600020600087815260200190815260200160002054604051808473ffffffffffffffffffffffffffffffffffffffff1673ffffffffffffffffffffffffffffffffffffffff1681526020018373ffffffffffffffffffffffffffffffffffffffff1673ffffffffffffffffffffffffffffffffffffffff168152602001828152602001935050505060405180910390a1601060008673ffffffffffffffffffffffffffffffffffffffff1673ffffffffffffffffffffffffffffffffffffffff16815260200190815260200160002060008573ffffffffffffffffffffffffffffffffffffffff1673ffffffffffffffffffffffffffffffffffffffff168152602001908152602001600020600084815260200190815260200160002054915081421115611cac577f23b0be1afec91a6e9c8cd9de5804b12bf01380910b356fd8d36f307b594bb52c8534604051808373ffffffffffffffffffffffffffffffffffffffff1673ffffffffffffffffffffffffffffffffffffffff1681526020018281526020019250505060405180910390a1611cec565b7f0ab9d1515bb62a18a9ed376470647874cb068db9844a03feaf038a1a5b4c4abe4283604051808381526020018281526020019250505060405180910390a15b5050505050565b60008173ffffffffffffffffffffffffffffffffffffffff16601160009054906101000a900473ffffffffffffffffffffffffffffffffffffffff1673ffffffffffffffffffffffffffffffffffffffff1614151515611d5257600080fd5b600960008373ffffffffffffffffffffffffffffffffffffffff1673ffffffffffffffffffffffffffffffffffffffff168152602001908152602001600020549050919050565b600d60205282600052604060002060205281600052604060002060205280600052604060002060009250925050505481565b611dd3615e15565b600083611ddf8161592b565b1515611e79576040517f08c379a000000000000000000000000000000000000000000000000000000000815260040180806020018281038252603e8152602001807f45524337323120746f6b656e2065786973747320666f7220626f6f6b2077697481526020017f682073706563696669656420494420646f6573206e6f742065786973742e000081525060400191505060405180910390fd5b611e83878661581b565b151515611e8f57600080fd5b611e9a878787612e7b565b151515611ea657600080fd5b6000600c60008873ffffffffffffffffffffffffffffffffffffffff1673ffffffffffffffffffffffffffffffffffffffff16815260200190815260200160002060008973ffffffffffffffffffffffffffffffffffffffff1673ffffffffffffffffffffffffffffffffffffffff168152602001908152602001600020600087815260200190815260200160002060006101000a81548160ff0219169083151502179055506001600560008973ffffffffffffffffffffffffffffffffffffffff1673ffffffffffffffffffffffffffffffffffffffff168152602001908152602001600020600087815260200190815260200160002060030160006101000a81548160ff02191690831515021790555086600560008973ffffffffffffffffffffffffffffffffffffffff1673ffffffffffffffffffffffffffffffffffffffff1681526020019081526020016000206000878152602001908152602001600020600a0160016101000a81548173ffffffffffffffffffffffffffffffffffffffff021916908373ffffffffffffffffffffffffffffffffffffffff16021790555060011515600a60008973ffffffffffffffffffffffffffffffffffffffff1673ffffffffffffffffffffffffffffffffffffffff16815260200190815260200160002060008873ffffffffffffffffffffffffffffffffffffffff1673ffffffffffffffffffffffffffffffffffffffff168152602001908152602001600020600087815260200190815260200160002060009054906101000a900460ff161515141561281d57600560008873ffffffffffffffffffffffffffffffffffffffff1673ffffffffffffffffffffffffffffffffffffffff168152602001908152602001600020600086815260200190815260200160002061018060405190810160405290816000820154815260200160018201548152602001600282015481526020016003820160009054906101000a900460ff16151515158152602001600482018054600181600116156101000203166002900480601f0160208091040260200160405190810160405280929190818152602001828054600181600116156101000203166002900480156122205780601f106121f557610100808354040283529160200191612220565b820191906000526020600020905b81548152906001019060200180831161220357829003601f168201915b5050505050815260200160058201548152602001600682018054600181600116156101000203166002900480601f0160208091040260200160405190810160405280929190818152602001828054600181600116156101000203166002900480156122cc5780601f106122a1576101008083540402835291602001916122cc565b820191906000526020600020905b8154815290600101906020018083116122af57829003601f168201915b50505050508152602001600782018054600181600116156101000203166002900480601f01602080910402602001604051908101604052809291908181526020018280546001816001161561010002031660029004801561236e5780601f106123435761010080835404028352916020019161236e565b820191906000526020600020905b81548152906001019060200180831161235157829003601f168201915b50505050508152602001600882018054600181600116156101000203166002900480601f0160208091040260200160405190810160405280929190818152602001828054600181600116156101000203166002900480156124105780601f106123e557610100808354040283529160200191612410565b820191906000526020600020905b8154815290600101906020018083116123f357829003601f168201915b50505050508152602001600982018054600181600116156101000203166002900480601f0160208091040260200160405190810160405280929190818152602001828054600181600116156101000203166002900480156124b25780601f10612487576101008083540402835291602001916124b2565b820191906000526020600020905b81548152906001019060200180831161249557829003601f168201915b50505050508152602001600a820160009054906101000a900460ff16151515158152602001600a820160019054906101000a900473ffffffffffffffffffffffffffffffffffffffff1673ffffffffffffffffffffffffffffffffffffffff1673ffffffffffffffffffffffffffffffffffffffff168152505092506001600660008873ffffffffffffffffffffffffffffffffffffffff1673ffffffffffffffffffffffffffffffffffffffff1681526020019081526020016000208690806001815401808255809150509060018203906000526020600020016000909192909190915055039150818360200181815250508583610160019073ffffffffffffffffffffffffffffffffffffffff16908173ffffffffffffffffffffffffffffffffffffffff168152505082600560008873ffffffffffffffffffffffffffffffffffffffff1673ffffffffffffffffffffffffffffffffffffffff168152602001908152602001600020600087815260200190815260200160002060008201518160000155602082015181600101556040820151816002015560608201518160030160006101000a81548160ff0219169083151502179055506080820151816004019080519060200190612689929190615e91565b5060a0820151816005015560c08201518160060190805190602001906126b0929190615e91565b5060e08201518160070190805190602001906126cd929190615e91565b506101008201518160080190805190602001906126eb929190615e91565b50610120820151816009019080519060200190612709929190615e91565b5061014082015181600a0160006101000a81548160ff02191690831515021790555061016082015181600a0160016101000a81548173ffffffffffffffffffffffffffffffffffffffff021916908373ffffffffffffffffffffffffffffffffffffffff1602179055509050506000600a60008973ffffffffffffffffffffffffffffffffffffffff1673ffffffffffffffffffffffffffffffffffffffff16815260200190815260200160002060008873ffffffffffffffffffffffffffffffffffffffff1673ffffffffffffffffffffffffffffffffffffffff168152602001908152602001600020600087815260200190815260200160002060006101000a81548160ff0219169083151502179055505b50505050505050565b6000349050601254600d60008673ffffffffffffffffffffffffffffffffffffffff1673ffffffffffffffffffffffffffffffffffffffff16815260200190815260200160002060008573ffffffffffffffffffffffffffffffffffffffff1673ffffffffffffffffffffffffffffffffffffffff168152602001908152602001600020600084815260200190815260200160002054101515156128c957600080fd5b80600d60008673ffffffffffffffffffffffffffffffffffffffff1673ffffffffffffffffffffffffffffffffffffffff16815260200190815260200160002060008573ffffffffffffffffffffffffffffffffffffffff1673ffffffffffffffffffffffffffffffffffffffff16815260200190815260200160002060008481526020019081526020016000205414151561296457600080fd5b61296f8484846113a7565b151561297a57600080fd5b612985848484612e7b565b15151561299157600080fd5b3373ffffffffffffffffffffffffffffffffffffffff168373ffffffffffffffffffffffffffffffffffffffff161415156129cb57600080fd5b8373ffffffffffffffffffffffffffffffffffffffff166108fc829081150290604051600060405180830381858888f19350505050158015612a11573d6000803e3d6000fd5b50612a6481600e60008673ffffffffffffffffffffffffffffffffffffffff1673ffffffffffffffffffffffffffffffffffffffff16815260200190815260200160002054615aba90919063ffffffff16565b600e60008573ffffffffffffffffffffffffffffffffffffffff1673ffffffffffffffffffffffffffffffffffffffff168152602001908152602001600020819055506001600b60008573ffffffffffffffffffffffffffffffffffffffff1673ffffffffffffffffffffffffffffffffffffffff16815260200190815260200160002060008673ffffffffffffffffffffffffffffffffffffffff1673ffffffffffffffffffffffffffffffffffffffff168152602001908152602001600020600084815260200190815260200160002060006101000a81548160ff0219169083151502179055507f861698d1e1a287ac2f4ae767f4c9b125a060975f64c546a9a9ff9060423951418382604051808373ffffffffffffffffffffffffffffffffffffffff1673ffffffffffffffffffffffffffffffffffffffff1681526020018281526020019250505060405180910390a150505050565b60135481565b81612bce8161592b565b1515612c68576040517f08c379a000000000000000000000000000000000000000000000000000000000815260040180806020018281038252603e8152602001807f45524337323120746f6b656e2065786973747320666f7220626f6f6b2077697481526020017f682073706563696669656420494420646f6573206e6f742065786973742e000081525060400191505060405180910390fd5b3373ffffffffffffffffffffffffffffffffffffffff168573ffffffffffffffffffffffffffffffffffffffff16141515612ca257600080fd5b600560003373ffffffffffffffffffffffffffffffffffffffff1673ffffffffffffffffffffffffffffffffffffffff1681526020019081526020016000206000848152602001908152602001600020600a0160009054906101000a900460ff161515612d0e57600080fd5b612d198585856113a7565b151515612d2557600080fd5b612d30858585612e7b565b151515612d3c57600080fd5b81600d60008773ffffffffffffffffffffffffffffffffffffffff1673ffffffffffffffffffffffffffffffffffffffff16815260200190815260200160002060008673ffffffffffffffffffffffffffffffffffffffff1673ffffffffffffffffffffffffffffffffffffffff1681526020019081526020016000206000858152602001908152602001600020819055506001600b60008773ffffffffffffffffffffffffffffffffffffffff1673ffffffffffffffffffffffffffffffffffffffff16815260200190815260200160002060008673ffffffffffffffffffffffffffffffffffffffff1673ffffffffffffffffffffffffffffffffffffffff168152602001908152602001600020600085815260200190815260200160002060006101000a81548160ff0219169083151502179055505050505050565b6000600c60008573ffffffffffffffffffffffffffffffffffffffff1673ffffffffffffffffffffffffffffffffffffffff16815260200190815260200160002060008473ffffffffffffffffffffffffffffffffffffffff1673ffffffffffffffffffffffffffffffffffffffff168152602001908152602001600020600083815260200190815260200160002060009054906101000a900460ff1690509392505050565b601160009054906101000a900473ffffffffffffffffffffffffffffffffffffffff1681565b81612f518161592b565b1515612feb576040517f08c379a000000000000000000000000000000000000000000000000000000000815260040180806020018281038252603e8152602001807f45524337323120746f6b656e2065786973747320666f7220626f6f6b2077697481526020017f682073706563696669656420494420646f6573206e6f742065786973742e000081525060400191505060405180910390fd5b8373ffffffffffffffffffffffffffffffffffffffff163373ffffffffffffffffffffffffffffffffffffffff1614151561302557600080fd5b8373ffffffffffffffffffffffffffffffffffffffff168573ffffffffffffffffffffffffffffffffffffffff161415151561306057600080fd5b61306b858585612e7b565b151561307657600080fd5b6000600b60008773ffffffffffffffffffffffffffffffffffffffff1673ffffffffffffffffffffffffffffffffffffffff16815260200190815260200160002060008673ffffffffffffffffffffffffffffffffffffffff1673ffffffffffffffffffffffffffffffffffffffff168152602001908152602001600020600085815260200190815260200160002060006101000a81548160ff0219169083151502179055506000600b60008673ffffffffffffffffffffffffffffffffffffffff1673ffffffffffffffffffffffffffffffffffffffff16815260200190815260200160002060008773ffffffffffffffffffffffffffffffffffffffff1673ffffffffffffffffffffffffffffffffffffffff168152602001908152602001600020600085815260200190815260200160002060006101000a81548160ff0219169083151502179055506000600c60008773ffffffffffffffffffffffffffffffffffffffff1673ffffffffffffffffffffffffffffffffffffffff16815260200190815260200160002060008673ffffffffffffffffffffffffffffffffffffffff1673ffffffffffffffffffffffffffffffffffffffff168152602001908152602001600020600085815260200190815260200160002060006101000a81548160ff0219169083151502179055507ff8cb3a702cc9afaabb95a48bae590122d4edb7966f2329cddcabef2719c91612600183604051808315151515815260200180602001828103825283818151815260200191508051906020019080838360005b838110156132d65780820151818401526020810190506132bb565b50505050905090810190601f1680156133035780820380516001836020036101000a031916815260200191505b50935050505060405180910390a160011515600a60008773ffffffffffffffffffffffffffffffffffffffff1673ffffffffffffffffffffffffffffffffffffffff16815260200190815260200160002060008673ffffffffffffffffffffffffffffffffffffffff1673ffffffffffffffffffffffffffffffffffffffff168152602001908152602001600020600085815260200190815260200160002060009054906101000a900460ff16151514156133c4576133c38585856114f2565b5b5050505050565b6004818154811015156133da57fe5b906000526020600020016000915054906101000a900473ffffffffffffffffffffffffffffffffffffffff1681565b600080600083815260200190815260200160002060009054906101000a900473ffffffffffffffffffffffffffffffffffffffff169050919050565b60008073ffffffffffffffffffffffffffffffffffffffff168273ffffffffffffffffffffffffffffffffffffffff161415151561348257600080fd5b600260008373ffffffffffffffffffffffffffffffffffffffff1673ffffffffffffffffffffffffffffffffffffffff168152602001908152602001600020549050919050565b6040805190810160405280600a81526020017f426f6f6b4c65646765720000000000000000000000000000000000000000000081525081565b60125481565b6000600d60008573ffffffffffffffffffffffffffffffffffffffff1673ffffffffffffffffffffffffffffffffffffffff16815260200190815260200160002060008473ffffffffffffffffffffffffffffffffffffffff1673ffffffffffffffffffffffffffffffffffffffff16815260200190815260200160002060008381526020019081526020016000205490509392505050565b816135ab8161592b565b1515613645576040517f08c379a000000000000000000000000000000000000000000000000000000000815260040180806020018281038252603e8152602001807f45524337323120746f6b656e2065786973747320666f7220626f6f6b2077697481526020017f682073706563696669656420494420646f6573206e6f742065786973742e000081525060400191505060405180910390fd5b3373ffffffffffffffffffffffffffffffffffffffff168473ffffffffffffffffffffffffffffffffffffffff1614151561367f57600080fd5b8473ffffffffffffffffffffffffffffffffffffffff168473ffffffffffffffffffffffffffffffffffffffff16141515156136ba57600080fd5b6136c5848685612e7b565b1515156136d157600080fd5b6136db858461581b565b1515156136e757600080fd5b6001600c60008673ffffffffffffffffffffffffffffffffffffffff1673ffffffffffffffffffffffffffffffffffffffff16815260200190815260200160002060008773ffffffffffffffffffffffffffffffffffffffff1673ffffffffffffffffffffffffffffffffffffffff168152602001908152602001600020600085815260200190815260200160002060006101000a81548160ff0219169083151502179055507f2ae44c65eb67e761c3480ce32a5df1276d25d02c42b7585274cc18c5b59f33378585856001604051808573ffffffffffffffffffffffffffffffffffffffff1673ffffffffffffffffffffffffffffffffffffffff1681526020018473ffffffffffffffffffffffffffffffffffffffff1673ffffffffffffffffffffffffffffffffffffffff1681526020018381526020018215151515815260200194505050505060405180910390a15050505050565b6000600e60008373ffffffffffffffffffffffffffffffffffffffff1673ffffffffffffffffffffffffffffffffffffffff168152602001908152602001600020549050919050565b6000613893615e15565b6000601160009054906101000a900473ffffffffffffffffffffffffffffffffffffffff1673ffffffffffffffffffffffffffffffffffffffff163373ffffffffffffffffffffffffffffffffffffffff1614151561395a576040517f08c379a000000000000000000000000000000000000000000000000000000000815260040180806020018281038252601a8152602001807f6d73672e73656e646572206973206e6f74205f6d696e7465722e00000000000081525060200191505060405180910390fd5b610180604051908101604052808a815260200160008152602001428152602001600115158152602001602060405190810160405280600081525081526020018981526020018881526020018781526020018681526020018581526020016001151581526020018b73ffffffffffffffffffffffffffffffffffffffff168152509150600560008b73ffffffffffffffffffffffffffffffffffffffff1673ffffffffffffffffffffffffffffffffffffffff16815260200190815260200160002060008a8152602001908152602001600020600a0160009054906101000a900460ff16151515613a4957600080fd5b6001600660008c73ffffffffffffffffffffffffffffffffffffffff1673ffffffffffffffffffffffffffffffffffffffff1681526020019081526020016000208a908060018154018082558091505090600182039060005260206000200160009091929091909150550390508082602001818152505081600560008c73ffffffffffffffffffffffffffffffffffffffff1673ffffffffffffffffffffffffffffffffffffffff16815260200190815260200160002060008b815260200190815260200160002060008201518160000155602082015181600101556040820151816002015560608201518160030160006101000a81548160ff0219169083151502179055506080820151816004019080519060200190613b6b929190615e91565b5060a0820151816005015560c0820151816006019080519060200190613b92929190615e91565b5060e0820151816007019080519060200190613baf929190615e91565b50610100820151816008019080519060200190613bcd929190615e91565b50610120820151816009019080519060200190613beb929190615e91565b5061014082015181600a0160006101000a81548160ff02191690831515021790555061016082015181600a0160016101000a81548173ffffffffffffffffffffffffffffffffffffffff021916908373ffffffffffffffffffffffffffffffffffffffff160217905550905050613c628a8a615adb565b7f36cd739b0d83505a1fbc492e37aba232dac482ae8aa4c2ab0a4ab5c366ceeda6600560008c73ffffffffffffffffffffffffffffffffffffffff1673ffffffffffffffffffffffffffffffffffffffff16815260200190815260200160002060008b8152602001908152602001600020600701600560008d73ffffffffffffffffffffffffffffffffffffffff1673ffffffffffffffffffffffffffffffffffffffff16815260200190815260200160002060008c8152602001908152602001600020600801600560008e73ffffffffffffffffffffffffffffffffffffffff1673ffffffffffffffffffffffffffffffffffffffff16815260200190815260200160002060008d815260200190815260200160002060090160405180806020018060200180602001848103845287818154600181600116156101000203166002900481526020019150805460018160011615610100020316600290048015613e0d5780601f10613de257610100808354040283529160200191613e0d565b820191906000526020600020905b815481529060010190602001808311613df057829003601f168201915b5050848103835286818154600181600116156101000203166002900481526020019150805460018160011615610100020316600290048015613e905780601f10613e6557610100808354040283529160200191613e90565b820191906000526020600020905b815481529060010190602001808311613e7357829003601f168201915b5050848103825285818154600181600116156101000203166002900481526020019150805460018160011615610100020316600290048015613f135780601f10613ee857610100808354040283529160200191613f13565b820191906000526020600020905b815481529060010190602001808311613ef657829003601f168201915b5050965050505050505060405180910390a18892505050979650505050505050565b613f3f8282614af9565b151515613f4b57600080fd5b6001600860008473ffffffffffffffffffffffffffffffffffffffff1673ffffffffffffffffffffffffffffffffffffffff168152602001908152602001600020600083815260200190815260200160002060006101000a81548160ff0219169083151502179055506140076001600960008573ffffffffffffffffffffffffffffffffffffffff1673ffffffffffffffffffffffffffffffffffffffff16815260200190815260200160002054615aba90919063ffffffff16565b600960008473ffffffffffffffffffffffffffffffffffffffff1673ffffffffffffffffffffffffffffffffffffffff168152602001908152602001600020819055505050565b816140588161592b565b15156140f2576040517f08c379a000000000000000000000000000000000000000000000000000000000815260040180806020018281038252603e8152602001807f45524337323120746f6b656e2065786973747320666f7220626f6f6b2077697481526020017f682073706563696669656420494420646f6573206e6f742065786973742e000081525060400191505060405180910390fd5b600560008573ffffffffffffffffffffffffffffffffffffffff1673ffffffffffffffffffffffffffffffffffffffff1681526020019081526020016000206000848152602001908152602001600020600a0160009054906101000a900460ff16151561415e57600080fd5b8373ffffffffffffffffffffffffffffffffffffffff163373ffffffffffffffffffffffffffffffffffffffff161415151561419957600080fd5b6141a3848461581b565b15156141ae57600080fd5b6141b93385856113a7565b1515156141c557600080fd5b6141d0338585612e7b565b1515156141dc57600080fd5b600115158215151415614290576001600a60008673ffffffffffffffffffffffffffffffffffffffff1673ffffffffffffffffffffffffffffffffffffffff16815260200190815260200160002060003373ffffffffffffffffffffffffffffffffffffffff1673ffffffffffffffffffffffffffffffffffffffff168152602001908152602001600020600085815260200190815260200160002060006101000a81548160ff0219169083151502179055505b50505050565b6142a08282614af9565b15156142ab57600080fd5b60006142b683611cf3565b1115156142c257600080fd5b6143156001600960008573ffffffffffffffffffffffffffffffffffffffff1673ffffffffffffffffffffffffffffffffffffffff16815260200190815260200160002054615a9990919063ffffffff16565b600960008473ffffffffffffffffffffffffffffffffffffffff1673ffffffffffffffffffffffffffffffffffffffff168152602001908152602001600020819055505050565b3373ffffffffffffffffffffffffffffffffffffffff168273ffffffffffffffffffffffffffffffffffffffff161415151561439757600080fd5b80600360003373ffffffffffffffffffffffffffffffffffffffff1673ffffffffffffffffffffffffffffffffffffffff16815260200190815260200160002060008473ffffffffffffffffffffffffffffffffffffffff1673ffffffffffffffffffffffffffffffffffffffff16815260200190815260200160002060006101000a81548160ff0219169083151502179055508173ffffffffffffffffffffffffffffffffffffffff163373ffffffffffffffffffffffffffffffffffffffff167f17307eab39ab6107e8899845ad3d59bd9653f200f220920489ca2b5937696c3183604051808215151515815260200191505060405180910390a35050565b60155481565b6000816144aa8161592b565b1515614544576040517f08c379a000000000000000000000000000000000000000000000000000000000815260040180806020018281038252603e8152602001807f45524337323120746f6b656e2065786973747320666f7220626f6f6b2077697481526020017f682073706563696669656420494420646f6573206e6f742065786973742e000081525060400191505060405180910390fd5b600560008573ffffffffffffffffffffffffffffffffffffffff1673ffffffffffffffffffffffffffffffffffffffff16815260200190815260200160002060008481526020019081526020016000206002015491505092915050565b806145ab8161592b565b1515614645576040517f08c379a000000000000000000000000000000000000000000000000000000000815260040180806020018281038252603e8152602001807f45524337323120746f6b656e2065786973747320666f7220626f6f6b2077697481526020017f682073706563696669656420494420646f6573206e6f742065786973742e000081525060400191505060405180910390fd5b600d60008573ffffffffffffffffffffffffffffffffffffffff1673ffffffffffffffffffffffffffffffffffffffff16815260200190815260200160002060008473ffffffffffffffffffffffffffffffffffffffff1673ffffffffffffffffffffffffffffffffffffffff168152602001908152602001600020600083815260200190815260200160002054600e60008573ffffffffffffffffffffffffffffffffffffffff1673ffffffffffffffffffffffffffffffffffffffff168152602001908152602001600020541015151561472057600080fd5b61472b8484846113a7565b151561473657600080fd5b6147418385846113a7565b151561474c57600080fd5b614757848484612e7b565b15151561476357600080fd5b61476e838584612e7b565b15151561477a57600080fd5b600560008573ffffffffffffffffffffffffffffffffffffffff1673ffffffffffffffffffffffffffffffffffffffff1681526020019081526020016000206000838152602001908152602001600020600a0160009054906101000a900460ff1615156147e657600080fd5b6147f0848361581b565b15156147fb57600080fd5b6001600c60008673ffffffffffffffffffffffffffffffffffffffff1673ffffffffffffffffffffffffffffffffffffffff16815260200190815260200160002060008573ffffffffffffffffffffffffffffffffffffffff1673ffffffffffffffffffffffffffffffffffffffff168152602001908152602001600020600084815260200190815260200160002060006101000a81548160ff0219169083151502179055506000600560008673ffffffffffffffffffffffffffffffffffffffff1673ffffffffffffffffffffffffffffffffffffffff168152602001908152602001600020600084815260200190815260200160002060030160006101000a81548160ff02191690831515021790555082600560008673ffffffffffffffffffffffffffffffffffffffff1673ffffffffffffffffffffffffffffffffffffffff1681526020019081526020016000206000848152602001908152602001600020600a0160016101000a81548173ffffffffffffffffffffffffffffffffffffffff021916908373ffffffffffffffffffffffffffffffffffffffff1602179055507f2ae44c65eb67e761c3480ce32a5df1276d25d02c42b7585274cc18c5b59f33378484846001604051808573ffffffffffffffffffffffffffffffffffffffff1673ffffffffffffffffffffffffffffffffffffffff1681526020018473ffffffffffffffffffffffffffffffffffffffff1673ffffffffffffffffffffffffffffffffffffffff1681526020018381526020018215151515815260200194505050505060405180910390a150505050565b60008173ffffffffffffffffffffffffffffffffffffffff16601160009054906101000a900473ffffffffffffffffffffffffffffffffffffffff1673ffffffffffffffffffffffffffffffffffffffff16141515614aaf57600080fd5b600660008373ffffffffffffffffffffffffffffffffffffffff1673ffffffffffffffffffffffffffffffffffffffff168152602001908152602001600020805490509050919050565b60008273ffffffffffffffffffffffffffffffffffffffff16601160009054906101000a900473ffffffffffffffffffffffffffffffffffffffff1673ffffffffffffffffffffffffffffffffffffffff1614151515614b5857600080fd5b600860008473ffffffffffffffffffffffffffffffffffffffff1673ffffffffffffffffffffffffffffffffffffffff168152602001908152602001600020600083815260200190815260200160002060009054906101000a900460ff16905092915050565b600080600084614bcd8161592b565b1515614c67576040517f08c379a000000000000000000000000000000000000000000000000000000000815260040180806020018281038252603e8152602001807f45524337323120746f6b656e2065786973747320666f7220626f6f6b2077697481526020017f682073706563696669656420494420646f6573206e6f742065786973742e000081525060400191505060405180910390fd5b8673ffffffffffffffffffffffffffffffffffffffff163373ffffffffffffffffffffffffffffffffffffffff161480614cee5750601160009054906101000a900473ffffffffffffffffffffffffffffffffffffffff1673ffffffffffffffffffffffffffffffffffffffff163373ffffffffffffffffffffffffffffffffffffffff16145b1515614cf957600080fd5b600560008873ffffffffffffffffffffffffffffffffffffffff1673ffffffffffffffffffffffffffffffffffffffff1681526020019081526020016000206000878152602001908152602001600020600a0160009054906101000a900460ff161515614d6557600080fd5b600560008873ffffffffffffffffffffffffffffffffffffffff1673ffffffffffffffffffffffffffffffffffffffff1681526020019081526020016000206000878152602001908152602001600020600101549250600660008873ffffffffffffffffffffffffffffffffffffffff1673ffffffffffffffffffffffffffffffffffffffff1681526020019081526020016000206001600660008a73ffffffffffffffffffffffffffffffffffffffff1673ffffffffffffffffffffffffffffffffffffffff1681526020019081526020016000208054905003815481101515614e4c57fe5b9060005260206000200154915081600660008973ffffffffffffffffffffffffffffffffffffffff1673ffffffffffffffffffffffffffffffffffffffff16815260200190815260200160002084815481101515614ea657fe5b906000526020600020018190555082600560008973ffffffffffffffffffffffffffffffffffffffff1673ffffffffffffffffffffffffffffffffffffffff168152602001908152602001600020600084815260200190815260200160002060010181905550600660008873ffffffffffffffffffffffffffffffffffffffff1673ffffffffffffffffffffffffffffffffffffffff168152602001908152602001600020805480919060019003614f5e9190615f11565b5060011515600760008973ffffffffffffffffffffffffffffffffffffffff1673ffffffffffffffffffffffffffffffffffffffff168152602001908152602001600020600088815260200190815260200160002060009054906101000a900460ff16151514158015614fd5575060001515851515145b156150ed57600560008873ffffffffffffffffffffffffffffffffffffffff1673ffffffffffffffffffffffffffffffffffffffff1681526020019081526020016000206000878152602001908152602001600020600080820160009055600182016000905560028201600090556003820160006101000a81549060ff02191690556004820160006150679190615f3d565b600582016000905560068201600061507f9190615f3d565b60078201600061508f9190615f3d565b60088201600061509f9190615f3d565b6009820160006150af9190615f3d565b600a820160006101000a81549060ff0219169055600a820160016101000a81549073ffffffffffffffffffffffffffffffffffffffff021916905550505b84156150fe576150fd8787615c73565b5b600193505050509392505050565b806151168161592b565b15156151b0576040517f08c379a000000000000000000000000000000000000000000000000000000000815260040180806020018281038252603e8152602001807f45524337323120746f6b656e2065786973747320666f7220626f6f6b2077697481526020017f682073706563696669656420494420646f6573206e6f742065786973742e000081525060400191505060405180910390fd5b600560008473ffffffffffffffffffffffffffffffffffffffff1673ffffffffffffffffffffffffffffffffffffffff1681526020019081526020016000206000838152602001908152602001600020600a0160009054906101000a900460ff16151561521c57600080fd5b600760008473ffffffffffffffffffffffffffffffffffffffff1673ffffffffffffffffffffffffffffffffffffffff168152602001908152602001600020600083815260200190815260200160002060009054906101000a900460ff1615151561528657600080fd5b6001600760008573ffffffffffffffffffffffffffffffffffffffff1673ffffffffffffffffffffffffffffffffffffffff168152602001908152602001600020600084815260200190815260200160002060006101000a81548160ff0219169083151502179055506152fb83836000614bbe565b507f754c0b8d6ffc9178fd4d167f660708e7769c991c4904f10c5436e2ee03b986b360018360405180831515151581526020018281526020019250505060405180910390a1505050565b8061534f8161592b565b15156153e9576040517f08c379a000000000000000000000000000000000000000000000000000000000815260040180806020018281038252603e8152602001807f45524337323120746f6b656e2065786973747320666f7220626f6f6b2077697481526020017f682073706563696669656420494420646f6573206e6f742065786973742e000081525060400191505060405180910390fd5b3373ffffffffffffffffffffffffffffffffffffffff168473ffffffffffffffffffffffffffffffffffffffff1614151561542357600080fd5b3460001115151561543357600080fd5b34600d60008673ffffffffffffffffffffffffffffffffffffffff1673ffffffffffffffffffffffffffffffffffffffff16815260200190815260200160002060008573ffffffffffffffffffffffffffffffffffffffff1673ffffffffffffffffffffffffffffffffffffffff1681526020019081526020016000206000848152602001908152602001600020541415156154ce57600080fd5b34600e60008573ffffffffffffffffffffffffffffffffffffffff1673ffffffffffffffffffffffffffffffffffffffff168152602001908152602001600020541015151561551c57600080fd5b6155fb600d60008673ffffffffffffffffffffffffffffffffffffffff1673ffffffffffffffffffffffffffffffffffffffff16815260200190815260200160002060008573ffffffffffffffffffffffffffffffffffffffff1673ffffffffffffffffffffffffffffffffffffffff168152602001908152602001600020600084815260200190815260200160002054600e60008673ffffffffffffffffffffffffffffffffffffffff1673ffffffffffffffffffffffffffffffffffffffff16815260200190815260200160002054615a9990919063ffffffff16565b600e60008573ffffffffffffffffffffffffffffffffffffffff1673ffffffffffffffffffffffffffffffffffffffff168152602001908152602001600020819055508273ffffffffffffffffffffffffffffffffffffffff166108fc349081150290604051600060405180830381858888f19350505050158015615684573d6000803e3d6000fd5b507f23b0be1afec91a6e9c8cd9de5804b12bf01380910b356fd8d36f307b594bb52c8334604051808373ffffffffffffffffffffffffffffffffffffffff1673ffffffffffffffffffffffffffffffffffffffff1681526020018281526020019250505060405180910390a1600d60008573ffffffffffffffffffffffffffffffffffffffff1673ffffffffffffffffffffffffffffffffffffffff16815260200190815260200160002060008473ffffffffffffffffffffffffffffffffffffffff1673ffffffffffffffffffffffffffffffffffffffff16815260200190815260200160002060008381526020019081526020016000206000905550505050565b6000600360008473ffffffffffffffffffffffffffffffffffffffff1673ffffffffffffffffffffffffffffffffffffffff16815260200190815260200160002060008373ffffffffffffffffffffffffffffffffffffffff1673ffffffffffffffffffffffffffffffffffffffff16815260200190815260200160002060009054906101000a900460ff16905092915050565b6000816158278161592b565b15156158c1576040517f08c379a000000000000000000000000000000000000000000000000000000000815260040180806020018281038252603e8152602001807f45524337323120746f6b656e2065786973747320666f7220626f6f6b2077697481526020017f682073706563696669656420494420646f6573206e6f742065786973742e000081525060400191505060405180910390fd5b600560008573ffffffffffffffffffffffffffffffffffffffff1673ffffffffffffffffffffffffffffffffffffffff168152602001908152602001600020600084815260200190815260200160002060030160009054906101000a900460ff1691505092915050565b60008073ffffffffffffffffffffffffffffffffffffffff1660008084815260200190815260200160002060009054906101000a900473ffffffffffffffffffffffffffffffffffffffff1673ffffffffffffffffffffffffffffffffffffffff1614159050919050565b8173ffffffffffffffffffffffffffffffffffffffff166159b682613409565b73ffffffffffffffffffffffffffffffffffffffff161415156159d857600080fd5b600073ffffffffffffffffffffffffffffffffffffffff166001600083815260200190815260200160002060009054906101000a900473ffffffffffffffffffffffffffffffffffffffff1673ffffffffffffffffffffffffffffffffffffffff16141515615a955760006001600083815260200190815260200160002060006101000a81548173ffffffffffffffffffffffffffffffffffffffff021916908373ffffffffffffffffffffffffffffffffffffffff1602179055505b5050565b600080838311151515615aab57600080fd5b82840390508091505092915050565b6000808284019050838110151515615ad157600080fd5b8091505092915050565b600073ffffffffffffffffffffffffffffffffffffffff168273ffffffffffffffffffffffffffffffffffffffff1614151515615b1757600080fd5b615b208161592b565b151515615b2c57600080fd5b8160008083815260200190815260200160002060006101000a81548173ffffffffffffffffffffffffffffffffffffffff021916908373ffffffffffffffffffffffffffffffffffffffff160217905550615bd06001600260008573ffffffffffffffffffffffffffffffffffffffff1673ffffffffffffffffffffffffffffffffffffffff16815260200190815260200160002054615aba90919063ffffffff16565b600260008473ffffffffffffffffffffffffffffffffffffffff1673ffffffffffffffffffffffffffffffffffffffff16815260200190815260200160002081905550808273ffffffffffffffffffffffffffffffffffffffff16600073ffffffffffffffffffffffffffffffffffffffff167fddf252ad1be2c89b69c2b068fc378daa952ba7f163c4a11628f55a4df523b3ef60405160405180910390a45050565b615c7d8282615996565b615c878282615ce7565b80600073ffffffffffffffffffffffffffffffffffffffff168373ffffffffffffffffffffffffffffffffffffffff167fddf252ad1be2c89b69c2b068fc378daa952ba7f163c4a11628f55a4df523b3ef60405160405180910390a45050565b8173ffffffffffffffffffffffffffffffffffffffff16615d0782613409565b73ffffffffffffffffffffffffffffffffffffffff16141515615d2957600080fd5b615d7c6001600260008573ffffffffffffffffffffffffffffffffffffffff1673ffffffffffffffffffffffffffffffffffffffff16815260200190815260200160002054615a9990919063ffffffff16565b600260008473ffffffffffffffffffffffffffffffffffffffff1673ffffffffffffffffffffffffffffffffffffffff16815260200190815260200160002081905550600080600083815260200190815260200160002060006101000a81548173ffffffffffffffffffffffffffffffffffffffff021916908373ffffffffffffffffffffffffffffffffffffffff1602179055505050565b61018060405190810160405280600081526020016000815260200160008152602001600015158152602001606081526020016000815260200160608152602001606081526020016060815260200160608152602001600015158152602001600073ffffffffffffffffffffffffffffffffffffffff1681525090565b828054600181600116156101000203166002900490600052602060002090601f016020900481019282601f10615ed257805160ff1916838001178555615f00565b82800160010185558215615f00579182015b82811115615eff578251825591602001919060010190615ee4565b5b509050615f0d9190615f85565b5090565b815481835581811115615f3857818360005260206000209182019101615f379190615f85565b5b505050565b50805460018160011615610100020316600290046000825580601f10615f635750615f82565b601f016020900490600052602060002090810190615f819190615f85565b5b50565b615fa791905b80821115615fa3576000816000905550600101615f8b565b5090565b90565b6000806000841415615fbf5760009150615fe1565b8284029050828482811515615fd057fe5b04141515615fdd57600080fd5b8091505b50929150505600a165627a7a723058202abfd8ef5a3adbd40350d3b9bc282f47ac2d45f04b110e12b3a8fc38eddf15b70029",
  "source": "\npragma solidity ^0.4.24;\nimport \"./Tokens/ERC721.sol\";\nimport \"./Support/SafeMath.sol\";\n\n/**\n * This contract inherits from ERC721\n    Every User/address/entity has a library of books. Calling this contract is\n    equivalent to creating their own library.\n */\ncontract BookLedger is ERC721 {\n  string public constant contractName = 'BookLedger';\n  using SafeMath for uint256;\n\n  event bookAdded(string publisher, string author, string name );\n  event bookRemoved(string publisher, string author, string name );\n  event escrowCommitted(address newOwner, uint256 escrowAmount );\n  event bookInTransmission(address currentOwner, address tempOwner, uint256 bookID, bool InTransmission );\n  event bookReceived(bool transmissionComplete, string bookCondition );\n  event bookIsLost(bool bookLost, uint256 bookID);\n  event escrowRefunded(address recipient, uint256 amount);\n  event startTimerForCounter( address plaintiff, address defendant, uint256 startTimer);\n  event deltaTimeNotElapsed(uint256 basically_now, uint256 delta_now);\n\n  struct Book {\n    uint256 bookID;\n    uint256 bookPointer;\n    uint256 timeOfOrigin;\n    bool availability;\n    string bookPossession;\n    uint256 genre;\n    string country;\n    string publisher;\n    string author;\n    string name;\n    bool exist;\n    address holder;\n  }\n\n  address[] public _entity;\n  //address private _wallet; //wallet address set to minter.. Should be the contracts address\n\n  // index books by entity address and bookID\n  mapping(address => mapping(uint256 => Book)) internal _books;\n  // _booksList contains a list of all books owned by an entity\n  // _lostBooksList contains a mapping of all the lost books in the universe\n  mapping(address => uint256[]) internal _booksList;\n  mapping(address => mapping(uint256 => bool)) internal _lostBooksList;\n\n  // Used to check if a user have a book\n  mapping(address => mapping(uint256 => bool)) _doesUserHaveBook;\n  mapping(address => uint256) _userBookCount;\n\n  // mapping for whether book will be loaned or traded\n  mapping(address => mapping(address => mapping(uint256 => bool))) internal _trade;\n\n  // Commit books for user. The indexing for this structure corresponds to the\n  // address of the sender, receiver of the book, and the book ID\n  mapping(address => mapping(address => mapping(uint256 => bool))) internal _committed;\n\n  // Will hold the transmission status of a book corresponding to the sender, receiver, and bookID\n  // The book needs to be commited for transmission and the status must be updated\n  // corresponding to how the book is being transmitted.\n  mapping(address => mapping(address => mapping(uint256 => bool))) internal _bookTransmission;\n\n  // determine escrow amount for book trade or rent. is internal necessary for all of these?\n  // contract holds escrow for each address\n  mapping(address => mapping(address => mapping(uint256 => uint256))) public _bookEscrow;\n  mapping(address => uint256) internal _contractEscrow;\n\n  // mapping of whether a complaint was filed and the time the complaint was filed\n  mapping(address => mapping(address => mapping(uint256 => bool))) internal _complaint;\n  mapping(address => mapping(address => mapping(uint256 => uint256))) internal _timeout;\n\n  address public _minter;\n  uint256 public _minEscrow; // Set the min escrow number\n  uint256 public _maxEscrow; // Limit the max escrow number\n  uint256 public _delta;\n\n  uint256 public _maxBookCount; // Limit the number of books a user can take out\n\n  constructor(\n    address minter,\n    uint256 minEscrow\n  ) public {\n      _minter = minter;\n      _minEscrow = minEscrow;\n      _maxEscrow = minEscrow.mul(3);\n      _delta = 3;\n  }\n  modifier onlyMinter() {\n    require(msg.sender == _minter, \"msg.sender is not _minter.\");\n    _;\n  }\n  modifier exists(uint256 bookID) {\n      require(_exists(bookID), \"ERC721 token exists for book with specified ID does not exist.\");\n    _;\n  }\n  /**\n   * Mint new book to library\n     May want when creating a book to make a hash of the concat of some of the\n     properties of the book for sharing\n   */\n   function newBook ( address owner,\n\t\t                  uint256 bookID,\n                      uint256 genre,\n                      string country,\n                      string publisher,\n                      string author,\n                      string name )\n      public onlyMinter returns(uint256)\n   {\n     Book memory book = Book({\n       bookID: bookID,\n       bookPointer: 0,\n       timeOfOrigin: now,\n       availability: true,\n       bookPossession: \"\",\n       genre: genre,\n       country: country,\n       publisher: publisher,\n       author: author,\n       name: name,\n       exist: true,\n       holder: owner\n\t });\n      // Require the book id does not exist. This is the easiest way to check if\n      // the book has already been added to the specified mapping\n      require(!_books[owner][bookID].exist);\n\n      // Update the placeholder bookPointer with position in owners bookList\n      uint256 bookPointer = _booksList[owner].push(bookID) - 1;\n      book.bookPointer = bookPointer;\n      _books[owner][bookID] = book;\n\n      /* Mint new book to the library */\n      _mint(owner, bookID);\n\n      emit bookAdded(_books[owner][bookID].publisher, _books[owner][bookID].author, _books[owner][bookID].name);\n      return bookID;\n   }\n\n   /** Public view functions\n    Common tests for property of book\n     - book.exists\n     - exists(bookID)\n     - isBookAvailable(owner, bookID)\n     - isBookCommitted(sender, receiver, bookID)\n     - transmissionStatus(owner, requester, bookID)\n     - accountEscrow(requester)\n     - bookEscrow(owner, requester, bookID)\n    */\n\n   /** Get origin date of book being placed in library. */\n    function originDateOfBook ( address owner, uint256 bookID )\n      external exists(bookID) view returns(uint256)\n    { return _books[owner][bookID].timeOfOrigin; }\n\n    /** Get number of books in Library  */\n    function numberOfBookInLibrary ( address owner )\n    public view returns(uint256)\n    {\n      require(_minter == owner);\n      return _booksList[owner].length;\n    }\n\n    /** Get number of books a user have  */\n    function numberOfAUserHolds ( address owner )\n    public view returns(uint256)\n    {\n      require(_minter != owner);\n      return _userBookCount[owner];\n    }\n\n    /** Get number of books a user have  */\n    function doesUserHaveBook ( address owner, uint256 bookID )\n    public view returns(bool)\n    {\n      require(_minter != owner);\n      return _doesUserHaveBook[owner][bookID];\n    }\n\n    /* Add book to user */\n    function addBookToUser ( address owner, uint256 bookID )\n    {\n      // Check to see whether the user have the book in their possession\n      require(!doesUserHaveBook ( owner, bookID ));\n      _doesUserHaveBook[owner][bookID] = true;\n      _userBookCount[owner] = _userBookCount[owner].add(1);\n    }\n    /* Remove book from user */\n    function removeBookFromUser (  address owner, uint256 bookID  )\n    {\n      // Check to see whether the user have the book in their possession\n      require(doesUserHaveBook ( owner, bookID ));\n      // Check if removing the book will bring the count of total books to zero\n      require(numberOfAUserHolds ( owner ) > 0);\n      _userBookCount[owner] = _userBookCount[owner].sub(1);\n    }\n   /**  Get the availability of book from library. */\n    function isBookAvailable( address owner, uint256 bookID )\n    public exists(bookID) view returns(bool)\n    { return _books[owner][bookID].availability; }\n\n    /** Check that the book is committed between two entities */\n    function isBookCommitted ( address sender, address receiver, uint256 bookID )\n    public exists(bookID) view returns(bool)\n    { return _committed[sender][receiver][bookID]; }\n\n    /** Check if the book is in transmission */\n    function transmissionStatus( address owner, address requester, uint256 bookID )\n    public view returns(bool)\n    { return _bookTransmission[owner][requester][bookID]; }\n\n    /** Check total account escrow for an entity */\n    function accountEscrow ( address requester )\n    public view returns(uint256)\n    { return _contractEscrow[requester]; }\n\n    /** Check security deposit / Escrow set for transferring a book */\n    function bookEscrow ( address owner, address requester, uint256 bookID )\n    public view returns(uint256)\n    { return _bookEscrow[owner][requester][bookID]; }\n\n  /**\n   *  Request book from the library\n      msg.sender: is the entity requesting to trade or checkout a book\n      owner: is the current owner of the book; the library\n      bookID: bookID of book being requested\n\n      If all statements pass, LibraryApp will contact owner that\n      msg.sender is requesting a book\n   */\n    function requestBook ( address owner, uint256 bookID, bool trade ) exists(bookID) public\n   {\n     // You should not be able to request a book that you are the owner of\n     // Question: is this necessary?\n     require(_books[owner][bookID].exist);\n\n     // The requester should not be able to request a book from itself\n     require(msg.sender != owner);\n\n     // The book should currently be in the possesion of the library\n     // and not being loaned out to someone at the moment\n     require(isBookAvailable(owner,bookID));\n\n     // The book should not be in transmission or currently committed to a\n     // transaction.\n     require(!isBookCommitted( msg.sender, owner, bookID));\n     require(!transmissionStatus( msg.sender, owner, bookID));\n\n     // base case, book is being loaned. Set mapping in the case the book\n     // is being traded\n     // the trade is from the owner to the requester (msg.sender) for the book\n     if( trade == true) {\n\t      _trade[owner][msg.sender][bookID] = true;\n     }\n\n\n     // Question: Should probably put some code here to confirm that the book\n     // has been requested.\n   }\n\n   /**\n      Sender establishes an escrow value for receiver to deposit to the contract\n      as a security deposit should something happen to the book\n\n      sender: entity that currently owns book, eg. librarian\n      receiver: entity requesting book from sender, eg bibliophile\n    */\n   function commitBook ( address sender, address receiver, uint256 bookID, uint256 escrow ) exists(bookID) public {\n     // Require the sender of the book is the only one who is able to commit the book.\n     require(sender == msg.sender);\n\n     // Require the book exist. If the book does not exist, this function should revert.\n     // Question: Already checked in requestBook?\n     require(_books[msg.sender][bookID].exist);\n\n     // The book should not be in transmission or currently committed to an\n     // transaction.\n     require(!isBookCommitted( sender, receiver, bookID));\n     require(!transmissionStatus( sender, receiver, bookID));\n\n     // Set book escrow value.\n     _bookEscrow[sender][receiver][bookID] = escrow;\n\n     // Set book as being commited\n     _committed[sender][receiver][bookID] = true;\n   }\n\n   /**\n      Sender commits an escrow value for receiver to deposit to the contract\n      as a security deposit should something happen to the book\n\n      sender: entity that currently owns book, eg. librarian\n      receiver: entity requesting book from sender, eg bibliophile\n    */\n   function commitEscrow ( address sender, address receiver, uint256 bookID ) public payable {\n     uint256 escrow = msg.value;\n     // require the set book escrow for the book is greater than the minimum escrow\n     // defined when the contract was created.\n     // must require some sort of deposit is set for the book.\n     require(_bookEscrow[sender][receiver][bookID] >= _minEscrow);\n\n     // require the bookEscrow set is equal to the amount passed into this function.\n     // Question: Will we always want these values to be equal? Would greater\n     // than or equal be sufficient?\n     require(_bookEscrow[sender][receiver][bookID] == escrow);\n\n     // require the book has already been commited by the library, but not currently\n     // in transmission\n     require(isBookCommitted( sender, receiver, bookID));\n     require(!transmissionStatus( sender, receiver, bookID));\n\n     // Require the receiver of the book is calling the function\n     require(receiver == msg.sender);\n\n     // Should force the book to be in the possesion of the library in order to update the\n     // escrow\n\n     // Give the contract the escrow as security deposit\n     sender.transfer(escrow);\n     _contractEscrow[receiver] = _contractEscrow[receiver].add(escrow);\n\n     // Change status of the receiver as having committed their security deposit\n     _committed[receiver][sender][bookID] = true;\n\n     // Emit signal stating that the escrow for the transmission has been recieved.\n     emit escrowCommitted( receiver, escrow );\n   }\n\n    /** Checkout book\n\t    * send a book out via mail in either case of loaning or trading\n\t    * Once both have committed, the currentOwner must ship the book the the\n      * temporary owner\n      *\n\t    * currentOwner: owns bookID\n\t    * tempOwner: temporary owner of bookID\n      */\n    function sendBook ( address currentOwner, address tempOwner, uint256 bookID ) exists(bookID) public {\n      // the temporary owner checking out the book should have an escrow being held\n      // by the contract greater than or equal to the book value set by the current\n      // owner\n      require(_contractEscrow[tempOwner] >= _bookEscrow[currentOwner][tempOwner][bookID]);\n\n      // both the current owner and new owner should have committed\n      require(isBookCommitted(currentOwner,tempOwner,bookID));\n      require(isBookCommitted(tempOwner,currentOwner,bookID));\n\n      // both the current owner and new owner should have not set the book in transmission\n      require(!transmissionStatus(currentOwner,tempOwner,bookID));\n      require(!transmissionStatus(tempOwner,currentOwner,bookID));\n\n      // require the book to exist. If the book does not exist, then the book cannot be\n      // checked out.\n      require(_books[currentOwner][bookID].exist);\n\n      // require the book to be available\n      require(isBookAvailable(currentOwner,bookID));\n\n      // Update the owners book\n\n      // Set the book as being in transmission.\n      // Question: One way or two way?\n      _bookTransmission[currentOwner][tempOwner][bookID] = true;\n      //_bookTransmission[tempOwner][currentOwner][bookID] = true;\n\n      // Set the book as not being available as it is now being loaned out.\n      // also set the holder to the tempOwner\n      _books[currentOwner][bookID].availability = false;\n      _books[currentOwner][bookID].holder = tempOwner;\n\n      // Emit that the book is currently in transmission\n      emit bookInTransmission( currentOwner, tempOwner, bookID, true );\n    }\n\n    /** acceptBook\n      * book has been shipped and received by new or tempOwner\n      */\n    function acceptBook( address sender, address receiver, uint256 bookID, string condition ) public exists(bookID) {\n\n      // The person recieving the book should be the only one who should be able\n      // to accept the book.\n      require(msg.sender == receiver);\n\n      // A user should not be able to transferbook to themself\n      require(sender != receiver);\n\n      // Check to make sure the book is in the process of being transfer between the\n      // two users.\n      require(transmissionStatus(sender,receiver,bookID));\n\n      // Check to see if the person current have the book. If the user currently\n      // have the book, they should not be able to accept the book twice\n      //require(!doesUserHaveBook(receiver,bookID));\n\n      // Add the book to the user\n      //addBookToUser ( receiver, bookID );\n\n      // After books have been succefully accepted, reset mappings to false\n      _committed[sender][receiver][bookID] = false;\n      _committed[receiver][sender][bookID] = false;\n      _bookTransmission[sender][receiver][bookID] = false;\n\n      emit bookReceived( true, condition );\n\n      // trade the token now\n      // remaining parameters updated in archiveBook\n      if( _trade[sender][receiver][bookID] == true) {\n\t       transferFrom(sender, receiver, bookID);\n      }\n    }\n    /**\n     * The book that was loaned is returned to the original owner.\n\n     */\n    function returnBook( address originalOwner, address newOwner, uint256 bookID, string condition ) exists(bookID) public\n    {\n      // The current owner of the book should be the only one able to return the\n      // book.\n      require(newOwner == msg.sender);\n\n      // The library should not return a book to themself\n      require(newOwner != originalOwner);\n\n      // Book should not be committed or in transfer\n      // no commit step necessary, simply check transmission status\n      //require(!isBookCommitted(newOwner, originalOwner, bookID));\n      require(!transmissionStatus(newOwner, originalOwner, bookID));\n\n      // Ensure book is not in the library already.\n      require(!isBookAvailable(originalOwner, bookID));\n\n      // Ensure the user who is try to return the book have more than 0 books.\n      //require(numberOfAUserHolds(newOwner) > 0);\n\n      // Check to see if the person current have the book they are trying to return.\n      //require(doesUserHaveBook(newOwner,bookID));\n\n      // Set the book as being in transferance back to the newOwner\n      _bookTransmission[newOwner][originalOwner][bookID] = true;\n\n      // Emit that the book is currently in transmission\n      emit bookInTransmission( originalOwner, newOwner, bookID, true );\n    }\n\n    /** Confirm receipt of loaned book, reset book availability, and\n     *  refund escrow.\n     *  If the archived book is a trade, change book ownership\n     *  originalOwner: address that originally owned the book and loaned it to tempOwner\n     *  tempOwner: the reader that took out the book from the originalOwner\n    */\n    function archiveBook( address originalOwner, address newOwner, uint256 bookID, string condition ) public exists(bookID) {\n\n       // Only the library should be able to place the book back into the archive\n       // can we allow the originalOwner to allow the newOwner to archive if it is a trade?\n       // require(msg.sender == _minter && msg.sender == originalOwner);\n\n       // check transmission status and book availability are in expected positions\n       require(!isBookAvailable(originalOwner, bookID));\n       require(!transmissionStatus(originalOwner, newOwner, bookID));\n\n       // Since the book have been archived back to the library, we can say the\n       // the book can be removed from the users account.\n       //removeBookFromUser ( newOwner, bookID  );\n\n      // reset transmission status\n      _bookTransmission[newOwner][originalOwner][bookID] = false;\n\n      // reset book availability and the holder of the book\n      _books[originalOwner][bookID].availability = true;\n      _books[originalOwner][bookID].holder = originalOwner;\n\n      // trade _books mapping if a trade\n      if ( _trade[originalOwner][newOwner][bookID] == true ) {\n\n\t       // get book of the original Owner, set data for\n\t       // new Owner and update their bookList\n\t       Book memory book = _books[originalOwner][bookID];\n\t       uint256 bookPointer = _booksList[newOwner].push(bookID) - 1;\n\t       book.bookPointer = bookPointer;\n\t       book.holder = newOwner; //pedantic? perhaps can simplify rather than overwriting something twice\n\t       _books[newOwner][bookID] = book;\n\n\t       // remove the book from the original Owner\n\t       // false to not burn book, simply remove from _books mapping and bookList\n\t       //removeBook( originalOwner, bookID, false);\n\n\t       // reset trade mapping\n\t       _trade[originalOwner][newOwner][bookID] = false;\n      }\n    }\n\n    /** Refund Escrow\n     * After the book has been returned to the library or the trade is complete,\n     * refund the escrow amount to the requester\n     */\n    function refundEscrow( address sender, address receiver, uint256 bookID ) public payable exists(bookID) {\n        // Require the sender of the message\n        require(sender == msg.sender);\n        // Require the value passed in is more than zero.\n        require(0 <= msg.value);\n        // Require the amount being transfer to the reciver is equal to the original\n        // book escrow amount.\n        require(_bookEscrow[sender][receiver][bookID] == msg.value);\n        // Require the amount being transfer to the receiving account does not\n        // exceed the total amount already in escrow for the receiver.\n        require(_contractEscrow[receiver] >= msg.value);\n\t      // decrease the contracts escrow for the receiver\n\t      _contractEscrow[receiver] = _contractEscrow[receiver].sub(_bookEscrow[sender][receiver][bookID]);\n        // send the money back to the receiver\n        receiver.transfer(msg.value);\n\temit escrowRefunded(receiver, msg.value);\n        // Remove the book ecrow mapping so the user isn't allowed to receive\n        // again.\n        delete (_bookEscrow[sender][receiver][bookID]);\n    }\n\n    /** rejectBook. Reject a book either because it was lost in transmission or \n     *  damamged. Whether the person lies about this doesn't matter as they've\n     *  already placed an escrow to the contract.\n     *  \n     *  Either party may call this function. \n     */\n    function rejectBook ( address plaintiff, address defendant, uint256 bookID ) public payable exists(bookID) {\n\n\t// if the first complaint, start a timer so that if no counter\n\t// is provided in time, refund the security deposit to the plaintiff\n\t\n\tif( _complaint[plaintiff][defendant][bookID] == false) {\n\t    _timeout[plaintiff][defendant][bookID] == now + _delta;\n\t    _complaint[plaintiff][defendant][bookID] = true;\n\t}\n\temit startTimerForCounter( plaintiff, defendant, _timeout[plaintiff][defendant][bookID]);\n\n\t// if the elapsed time has passed, refund to the plaintiff\n\tuint256 delta_now = _timeout[plaintiff][defendant][bookID];\n\tif(now > delta_now) {\n\t    //plaintiff.transfer(msg.value);\n\t    emit escrowRefunded(plaintiff, msg.value);\n\t} else {\n\t    emit deltaTimeNotElapsed(now, delta_now);\n\t}\n\n\t\n    }\n    \n    /*\n      * Trade Book. Trade book will allow one user to trade books with another\n      * user without resubmitting the book to the library. This function should\n      * initiate the transaction.\n\n    function tradeBook ( address owner1, uint256 bookID1, address owner2, uint256 bookID2) exists(bookID1) exists(bookID2) public\n    {\n      // Make sure books are not currntly in the process of being transfered to\n      // anyone else before making trade.\n      require(_committed[owner1][owner2][bookID1] == false);\n      require(_bookTransmission[owner1][owner2][bookID1] == false);\n      require(_committed[owner2][owner1][bookID2] == false);\n      require(_bookTransmission[owner2][owner1][bookID2] == false);\n\n      // Set books as being prompted for transmission\n      _committed[owner1][owner2][bookID1] = true;\n      _committed[owner2][owner1][bookID2] = true;\n    }\n      */\n  /**\n    * If a book is lost in transmission or by a user, this function should be called\n    * to clear out any transaction information for the given book. Once this\n    * information is cleared, the book is then burned and removed from the\n    * library blockchain.\n    */\n    function lostBook ( address owner, uint256 bookID ) exists(bookID) public\n    {\n       // Require the book exist in the first place before it is reported lost\n       require( _books[owner][bookID].exist );\n      // Cannot lose the same book twice, so will not allow the book to\n      // be re added to the lost book list.\n       require( !_lostBooksList[owner][bookID] );\n       // Set the book as lost\n       _lostBooksList[owner][bookID] = true;\n       // Remove the book from circulation.\n       removeBook( owner, bookID, false );\n       // Broadcast that the book has been lost and added to the lost book queue\n       emit bookIsLost(true, bookID);\n    }\n\n\n  /**\n   * Remove book from the library\n   * @param bookID The unique ID of the book in the library.\n   */\n    function removeBook( address owner, uint256 bookID, bool burn )\n   public exists(bookID) returns(bool)\n   {\n     // The only one who should be able to remove a book is the library or the\n     // owner of the book\n     require( msg.sender == owner || msg.sender == _minter);\n     require(_books[owner][bookID].exist);\n\n     // remove book from book list by swapping with last element in list\n     // and update swapped book's pointer in book mapping\n     uint256 rowToDelete = _books[owner][bookID].bookPointer;\n     uint256 keyToMove = _booksList[owner][_booksList[owner].length-1];\n\n\n     _booksList[owner][rowToDelete] = keyToMove;\n     _books[owner][keyToMove].bookPointer = rowToDelete;\n     _booksList[owner].length--;\n\n     // up to here the function satisfies if the book is put in the lost\n     // state. if burn == true, then remove it from circulation\n\n     // if it not lost, then the user intended to remove it from their _books mapping\n     if ( _lostBooksList[owner][bookID] != true && burn == false ) {\n\t      delete ( _books[owner][bookID] );\n     }\n\n     // Question: If the book is found, how will it be added back into circulation?\n     // I originally thought we were going to just burn the book if it is lost, then\n     // just re add the book with new book to make this process less complicated.\n     // If a book is lost and not burned, we would have to have a function to check\n     // if the token still exist, then up date the books list mappings without adding\n     // an additional token.\n     if( burn ) {\n\t      _burn(owner, bookID);\n     }\n\n     return true;\n   }\n\n}\n",
  "sourcePath": "/gpfs/main/home/mrmcavoy/course/cs1951l/LedgerLibrary/contracts/BookLedger.sol",
  "compiler": {
    "name": "solc",
    "version": "0.4.24+commit.e67f0147.Emscripten.clang"
  },
  "schemaVersion": "2.0.1",
  "updatedAt": "2019-04-24T22:07:43.061Z"
}