{
  "contractName": "ERC721",
  "abi": [
    {
      "anonymous": false,
      "inputs": [
        {
          "indexed": true,
          "name": "from",
          "type": "address"
        },
        {
          "indexed": true,
          "name": "to",
          "type": "address"
        },
        {
          "indexed": true,
          "name": "tokenId",
          "type": "uint256"
        }
      ],
      "name": "Transfer",
      "type": "event"
    },
    {
      "anonymous": false,
      "inputs": [
        {
          "indexed": true,
          "name": "owner",
          "type": "address"
        },
        {
          "indexed": true,
          "name": "approved",
          "type": "address"
        },
        {
          "indexed": true,
          "name": "tokenId",
          "type": "uint256"
        }
      ],
      "name": "Approval",
      "type": "event"
    },
    {
      "anonymous": false,
      "inputs": [
        {
          "indexed": true,
          "name": "owner",
          "type": "address"
        },
        {
          "indexed": true,
          "name": "operator",
          "type": "address"
        },
        {
          "indexed": false,
          "name": "approved",
          "type": "bool"
        }
      ],
      "name": "ApprovalForAll",
      "type": "event"
    },
    {
      "constant": true,
      "inputs": [
        {
          "name": "owner",
          "type": "address"
        }
      ],
      "name": "balanceOf",
      "outputs": [
        {
          "name": "",
          "type": "uint256"
        }
      ],
      "payable": false,
      "stateMutability": "view",
      "type": "function"
    },
    {
      "constant": true,
      "inputs": [
        {
          "name": "tokenId",
          "type": "uint256"
        }
      ],
      "name": "ownerOf",
      "outputs": [
        {
          "name": "",
          "type": "address"
        }
      ],
      "payable": false,
      "stateMutability": "view",
      "type": "function"
    },
    {
      "constant": false,
      "inputs": [
        {
          "name": "to",
          "type": "address"
        },
        {
          "name": "tokenId",
          "type": "uint256"
        }
      ],
      "name": "approve",
      "outputs": [],
      "payable": false,
      "stateMutability": "nonpayable",
      "type": "function"
    },
    {
      "constant": true,
      "inputs": [
        {
          "name": "tokenId",
          "type": "uint256"
        }
      ],
      "name": "getApproved",
      "outputs": [
        {
          "name": "",
          "type": "address"
        }
      ],
      "payable": false,
      "stateMutability": "view",
      "type": "function"
    },
    {
      "constant": false,
      "inputs": [
        {
          "name": "to",
          "type": "address"
        },
        {
          "name": "approved",
          "type": "bool"
        }
      ],
      "name": "setApprovalForAll",
      "outputs": [],
      "payable": false,
      "stateMutability": "nonpayable",
      "type": "function"
    },
    {
      "constant": true,
      "inputs": [
        {
          "name": "owner",
          "type": "address"
        },
        {
          "name": "operator",
          "type": "address"
        }
      ],
      "name": "isApprovedForAll",
      "outputs": [
        {
          "name": "",
          "type": "bool"
        }
      ],
      "payable": false,
      "stateMutability": "view",
      "type": "function"
    },
    {
      "constant": false,
      "inputs": [
        {
          "name": "from",
          "type": "address"
        },
        {
          "name": "to",
          "type": "address"
        },
        {
          "name": "tokenId",
          "type": "uint256"
        }
      ],
      "name": "transferFrom",
      "outputs": [],
      "payable": false,
      "stateMutability": "nonpayable",
      "type": "function"
    }
  ],
  "bytecode": "0x608060405234801561001057600080fd5b50610bbe806100206000396000f300608060405260043610610083576000357c0100000000000000000000000000000000000000000000000000000000900463ffffffff168063081812fc14610088578063095ea7b3146100f557806323b872dd146101425780636352211e146101af57806370a082311461021c578063a22cb46514610273578063e985e9c5146102c2575b600080fd5b34801561009457600080fd5b506100b36004803603810190808035906020019092919050505061033d565b604051808273ffffffffffffffffffffffffffffffffffffffff1673ffffffffffffffffffffffffffffffffffffffff16815260200191505060405180910390f35b34801561010157600080fd5b50610140600480360381019080803573ffffffffffffffffffffffffffffffffffffffff1690602001909291908035906020019092919050505061037a565b005b34801561014e57600080fd5b506101ad600480360381019080803573ffffffffffffffffffffffffffffffffffffffff169060200190929190803573ffffffffffffffffffffffffffffffffffffffff169060200190929190803590602001909291905050506104bf565b005b3480156101bb57600080fd5b506101da600480360381019080803590602001909291905050506107bd565b604051808273ffffffffffffffffffffffffffffffffffffffff1673ffffffffffffffffffffffffffffffffffffffff16815260200191505060405180910390f35b34801561022857600080fd5b5061025d600480360381019080803573ffffffffffffffffffffffffffffffffffffffff1690602001909291905050506107f9565b6040518082815260200191505060405180910390f35b34801561027f57600080fd5b506102c0600480360381019080803573ffffffffffffffffffffffffffffffffffffffff16906020019092919080351515906020019092919050505061087d565b005b3480156102ce57600080fd5b50610323600480360381019080803573ffffffffffffffffffffffffffffffffffffffff169060200190929190803573ffffffffffffffffffffffffffffffffffffffff1690602001909291905050506109b9565b604051808215151515815260200191505060405180910390f35b60006001600083815260200190815260200160002060009054906101000a900473ffffffffffffffffffffffffffffffffffffffff169050919050565b6000610385826107bd565b90508073ffffffffffffffffffffffffffffffffffffffff168373ffffffffffffffffffffffffffffffffffffffff16141515156103c257600080fd5b8073ffffffffffffffffffffffffffffffffffffffff163373ffffffffffffffffffffffffffffffffffffffff161480610402575061040181336109b9565b5b151561040d57600080fd5b826001600084815260200190815260200160002060006101000a81548173ffffffffffffffffffffffffffffffffffffffff021916908373ffffffffffffffffffffffffffffffffffffffff160217905550818373ffffffffffffffffffffffffffffffffffffffff168273ffffffffffffffffffffffffffffffffffffffff167f8c5be1e5ebec7d5bd14f71427d1e84f3dd0314c0f7b2291e5b200ac8c7c3b92560405160405180910390a4505050565b8273ffffffffffffffffffffffffffffffffffffffff166104df826107bd565b73ffffffffffffffffffffffffffffffffffffffff1614151561050157600080fd5b600073ffffffffffffffffffffffffffffffffffffffff168273ffffffffffffffffffffffffffffffffffffffff161415151561053d57600080fd5b610546816107bd565b73ffffffffffffffffffffffffffffffffffffffff163373ffffffffffffffffffffffffffffffffffffffff1614806105b257503373ffffffffffffffffffffffffffffffffffffffff1661059a8261033d565b73ffffffffffffffffffffffffffffffffffffffff16145b806105cb57506105ca6105c4826107bd565b336109b9565b5b15156105d657600080fd5b6105e08382610a4d565b6106336001600260008673ffffffffffffffffffffffffffffffffffffffff1673ffffffffffffffffffffffffffffffffffffffff16815260200190815260200160002054610b5090919063ffffffff16565b600260008573ffffffffffffffffffffffffffffffffffffffff1673ffffffffffffffffffffffffffffffffffffffff168152602001908152602001600020819055506106c96001600260008573ffffffffffffffffffffffffffffffffffffffff1673ffffffffffffffffffffffffffffffffffffffff16815260200190815260200160002054610b7190919063ffffffff16565b600260008473ffffffffffffffffffffffffffffffffffffffff1673ffffffffffffffffffffffffffffffffffffffff168152602001908152602001600020819055508160008083815260200190815260200160002060006101000a81548173ffffffffffffffffffffffffffffffffffffffff021916908373ffffffffffffffffffffffffffffffffffffffff160217905550808273ffffffffffffffffffffffffffffffffffffffff168473ffffffffffffffffffffffffffffffffffffffff167fddf252ad1be2c89b69c2b068fc378daa952ba7f163c4a11628f55a4df523b3ef60405160405180910390a4505050565b600080600083815260200190815260200160002060009054906101000a900473ffffffffffffffffffffffffffffffffffffffff169050919050565b60008073ffffffffffffffffffffffffffffffffffffffff168273ffffffffffffffffffffffffffffffffffffffff161415151561083657600080fd5b600260008373ffffffffffffffffffffffffffffffffffffffff1673ffffffffffffffffffffffffffffffffffffffff168152602001908152602001600020549050919050565b3373ffffffffffffffffffffffffffffffffffffffff168273ffffffffffffffffffffffffffffffffffffffff16141515156108b857600080fd5b80600360003373ffffffffffffffffffffffffffffffffffffffff1673ffffffffffffffffffffffffffffffffffffffff16815260200190815260200160002060008473ffffffffffffffffffffffffffffffffffffffff1673ffffffffffffffffffffffffffffffffffffffff16815260200190815260200160002060006101000a81548160ff0219169083151502179055508173ffffffffffffffffffffffffffffffffffffffff163373ffffffffffffffffffffffffffffffffffffffff167f17307eab39ab6107e8899845ad3d59bd9653f200f220920489ca2b5937696c3183604051808215151515815260200191505060405180910390a35050565b6000600360008473ffffffffffffffffffffffffffffffffffffffff1673ffffffffffffffffffffffffffffffffffffffff16815260200190815260200160002060008373ffffffffffffffffffffffffffffffffffffffff1673ffffffffffffffffffffffffffffffffffffffff16815260200190815260200160002060009054906101000a900460ff16905092915050565b8173ffffffffffffffffffffffffffffffffffffffff16610a6d826107bd565b73ffffffffffffffffffffffffffffffffffffffff16141515610a8f57600080fd5b600073ffffffffffffffffffffffffffffffffffffffff166001600083815260200190815260200160002060009054906101000a900473ffffffffffffffffffffffffffffffffffffffff1673ffffffffffffffffffffffffffffffffffffffff16141515610b4c5760006001600083815260200190815260200160002060006101000a81548173ffffffffffffffffffffffffffffffffffffffff021916908373ffffffffffffffffffffffffffffffffffffffff1602179055505b5050565b600080838311151515610b6257600080fd5b82840390508091505092915050565b6000808284019050838110151515610b8857600080fd5b80915050929150505600a165627a7a72305820f82c006da9ac925dcb67fa912dfd4b37eeccebbcd379851218446e27878e40360029",
  "source": "pragma solidity ^0.4.24;\n\nimport \"../Support/IERC721.sol\";\nimport \"../Support/SafeMath.sol\";\n\n/**\n* This contract implements the ERC721 token standard. In addition to the\n* functions specified by the IERC721 interface, it has five internal functions\n* (you're welcome to add more if you wish). Two of the below functions,\n* _transferFrom and _mint, have been left for you to fill in. As with the ERC20\n* contract, you may copy the solutions verbatim from the OpenZeppelin-Solidity\n* repository, but we recommend that you try it yourself first.\n* https://github.com/OpenZeppelin/openzeppelin-solidity/blob/master/contracts/token/ERC721/ERC721.sol\n*/\ncontract ERC721 is IERC721 {\n  using SafeMath for uint256;\n\n  /* Stores the owner of each token. */\n  mapping (uint256 => address) private _tokenOwner;\n\n  /* Stores the approved address (if one exists) for each token. */\n  mapping (uint256 => address) private _tokenApprovals;\n\n  /* Stores the number of tokens owned by each address. */\n  mapping (address => uint256) private _ownedTokensCount;\n\n  /* Stores the operator approvals for each address. */\n  mapping (address => mapping (address => bool)) private _operatorApprovals;\n\n  /**\n   * @param owner The address to query the balance of.\n   * @return The amount of tokens owned by the passed address as a uint256.\n   */\n  function balanceOf(address owner) public view returns (uint256) {\n    require(owner != address(0));\n    return _ownedTokensCount[owner];\n  }\n\n  /**\n   * @param tokenId uint256 ID of the token to query the owner of.\n   * @return The address that owns the specified token.\n   */\n  function ownerOf(uint256 tokenId) public view returns (address) {\n    return _tokenOwner[tokenId];\n  }\n\n  /**\n   * Approves another address to transfer the given token ID.\n   * There can only be one approved address per token at a given time.\n   * Can only be called by the token owner or an approved operator.\n   * @param to The address to be approved for the given token ID.\n   * @param tokenId uint256 ID of the token.\n   */\n  function approve(address to, uint256 tokenId) public {\n    address owner = ownerOf(tokenId);\n    require(to != owner);\n    require(msg.sender == owner || isApprovedForAll(owner, msg.sender));\n\n    _tokenApprovals[tokenId] = to;\n    emit Approval(owner, to, tokenId);\n  }\n\n  /**\n   * @param tokenId uint256 ID of the token to query the approval of.\n   * @return The approved address, or zero if no address is approved.\n   */\n  function getApproved(uint256 tokenId) public view returns (address) {\n    return _tokenApprovals[tokenId];\n  }\n\n  /**\n   * Sets or unsets operators. An operator is an address allowed to transfer\n   * all tokens of the sender on their behalf.\n   * @param to The address to add or remove as an operator.\n   * @param approved A bool representing whether the address is an operator.\n   */\n  function setApprovalForAll(address to, bool approved) public {\n    require(to != msg.sender);\n    _operatorApprovals[msg.sender][to] = approved;\n    emit ApprovalForAll(msg.sender, to, approved);\n  }\n\n  /**\n   * Determines whether an address is set as an operator.\n   * @param owner The address which may have the specified operator.\n   * @param operator The address which may be an operator for owner.\n   * @return A bool representing whether owner has the specified operator.\n   */\n  function isApprovedForAll(address owner, address operator)\n    public view returns (bool)\n  {\n    return _operatorApprovals[owner][operator];\n  }\n\n  /**\n   * Transfers the ownership of a given token to another address.\n   * @param from The address of the token's current owner.\n   * @param to The address to receive ownership of the token.\n   * @param tokenId uint256 ID of the token to be transfered.\n  */\n  function transferFrom(address from, address to, uint256 tokenId) public {\n    require(ownerOf(tokenId) == from);\n    require(to != address(0));\n    require((msg.sender == ownerOf(tokenId)     || \n             getApproved(tokenId) == msg.sender || \n             isApprovedForAll(ownerOf(tokenId), msg.sender)));\n    _clearApproval(from, tokenId);\n    _ownedTokensCount[from]= _ownedTokensCount[from].sub(1);\n    _ownedTokensCount[to] = _ownedTokensCount[to].add(1);\n    _tokenOwner[tokenId] = to;\n    emit Transfer(from, to, tokenId);\n  }\n\n  /**\n   * Internal function determines whether the specified token exists.\n   * @param tokenId uint256 ID of the token to query the existence of.\n   * @return A bool representing whether the token exists.\n   */\n  function _exists(uint256 tokenId) internal view returns (bool) {\n    return _tokenOwner[tokenId] != address(0);\n  }\n\n  /**\n   * Internal function to mint a new token.\n   * Reverts if the given token ID already exists.\n   * @param to The address that will own the minted token.\n   * @param tokenId uint256 ID of the token to be minted.\n   */\n  function _mint(address to, uint256 tokenId) internal {\n\n    require(to != address(0));\n    require(!_exists(tokenId));\n\n    _tokenOwner[tokenId] = to;\n    _ownedTokensCount[to]= _ownedTokensCount[to].add(1);\n\n    emit Transfer(address(0), to, tokenId);\n\n  }\n\n  /**\n   * Internal function to burn a specific token.\n   * Reverts if the token does not exist.\n   * @param tokenId uint256 ID of the token to be burned.\n   */\n  function _burn(address owner, uint256 tokenId) internal {\n    _clearApproval(owner, tokenId);\n    _removeTokenFrom(owner, tokenId);\n    emit Transfer(owner, address(0), tokenId);\n  }\n\n  /**\n   * Internal function to remove a token ID from the list of a given address.\n   * @param from The address of the token's previous owner.\n   * @param tokenId uint256 ID of the token.\n   */\n  function _removeTokenFrom(address from, uint256 tokenId) internal {\n    require(ownerOf(tokenId) == from);\n    _ownedTokensCount[from] = _ownedTokensCount[from].sub(1);\n    _tokenOwner[tokenId] = address(0);\n  }\n\n  /**\n   * Private function to clear approval of a given token.\n   * @param owner The address of the token's owner.\n   * @param tokenId uint256 ID of the token.\n   */\n  function _clearApproval(address owner, uint256 tokenId) private {\n    require(ownerOf(tokenId) == owner);\n    if (_tokenApprovals[tokenId] != address(0)) {\n      _tokenApprovals[tokenId] = address(0);\n    }\n  }\n\n}\n",
  "sourcePath": "/gpfs/main/home/mrmcavoy/course/cs1951l/LedgerLibrary/contracts/Tokens/ERC721.sol",
  "compiler": {
    "name": "solc",
    "version": "0.4.24+commit.e67f0147.Emscripten.clang"
  },
  "schemaVersion": "2.0.1",
  "updatedAt": "2019-04-22T19:36:45.556Z"
}